:100000000C94743618951895189518951895189598
:100010001895189518951895189518951895189578
:10002000189518950C94613618951895189518958B
:100030000C94153418951895189518950C94E6336A
:1000400018951895189518950C94293418951895A5
:100050000C946E3418951895189518951895189550
:1000600018951895189518950C9499341895189515
:1000700018951895189518950C94C83418951895D6
:100080000C94753518951895189518955F5F5FCC89
:10009000D02DCE0000000000C2E5F0F1E8FF5F3097
:1000A000312E313141E4F0E5F15F00000000000045
:1000B000D1EAEEF02E5F393630300000CEE6E8E4CB
:1000C000E0EDE8E500000000EAEEEDF4E8E3F3F02F
:1000D000E0F6E8E8CEF8E8E1EAE05FEAEEEDF42EDB
:1000E000C2C7D32DDDD6D12DC50000C2C7D32DDDAB
:1000F000D6D12D4D0000C2C7D32DDDD6D12DCD00D8
:1001000000C2C7D32DDDD6D12D544D00C2C7D32D8B
:10011000DDD6D12D000000D1F2EEF0EEEDE05F0073
:10012000000000CAEEEBE8F72E5FF0FFE4EEE2D845
:10013000E8F0E8EDE05F000000003633300000003A
:100140000000000000363630000000000000000013
:100150003930300000000000000000CDE5F2000062
:100160000000000000004E41312D4E4136000000DD
:100170004E41372D4E41313200004E41312D4E411E
:1001800039000000EDE5F200000000000000EDE5A0
:10019000F200000000000000EDE5F20000000000A9
:1001A00000004E41312D4E41360000004E41372DAA
:1001B0004E4131320000EDE5F20000000000000089
:1001C000EDE5F2000000000000004E41312D4E41EF
:1001D000340000004E41352D4E4138000000EDE561
:1001E000F200000000000000EDE5F2000000000059
:1001F0000000EDE5F200000000000000EDE5F20077
:10020000000000000000EDE5F2000000000000002A
:10021000EDE5F2000000000000004E41312D4E419E
:10022000380000004E41392D4E4131360000EDE5D9
:10023000F200000000000000EDE5F2000000000008
:1002400000004E41312D4E4136000000EDE5F20038
:10025000000000000000EDE5F200000000000000DA
:10026000EDE5F200000000000000EDE5F200000006
:1002700000000000EDE5F200000000000000EDE5E8
:10028000F200000000000000EDE5F20000000000B8
:100290000000EDE5F200000000000000EDE5F200D6
:1002A000000000000000EDE5F2000000000000008A
:1002B000EDE5F2000000000000004E41312D4E41FE
:1002C00031380000EDE5F2000000000000004E4172
:1002D000312D4E41313000004E4131312D4E4132F1
:1002E00030004E41312D4E4131320000EDE5F2003B
:1002F0000000000000004E41312D4E41340000004E
:100300004E41352D4E41380000004E41312D4E41B9
:10031000313000004E4131312D4E41323000EDE59B
:10032000F200000000000000EDE5F2000000000017
:1003300000004E41312D4E41340000004E41352D1C
:100340004E4138000000EDE5F20000000000000022
:10035000EDE5F200000000000000EDE5F200000015
:1003600000000000EDE5F200000000000000EDE5F7
:10037000F200000000000000EDE5F20000000000C7
:100380000000CDE5F25FC0352DC038000000CAEE98
:10039000EDF4E8E3F3F0E0F6E8FE5F5FF1EEF5F090
:1003A000E0EDE8F2FC3FD6E5EFFC5F0000005FCB3C
:1003B000D600000000005FCBD6D1000000005FD067
:1003C000D600000000005FCBD62FCBD6D100CBD615
:1003D000000000000000CFEEE8F1EA5FCCD02DCAAB
:1003E0000000CDE0E9E4E5EDFB5FCCD02DCA2DEDBA
:1003F000E5F200000000000000005F2E2E2E2E2EE1
:10040000000000000000D1E5EAF6E8FF5F00000010
:100410000000E8EBE85FEDE5F25FF1E5EAF6D0D643
:100420005FCCD02DCA0000000000CCEEE4F3EBFC62
:100430005FC000000000D1C5CA2E0000000000000F
:100440000000CCCEC42E4100000000000000D0DF30
:10045000C4000000000000000000CDE5F25FCCD039
:100460002DCA34000000CCD02DCA000000000000CE
:1004700000005F2DEDE5F2000000000000005F2DA0
:10048000E5F1F2FC000000000000CDE5F25FF1E5CF
:10049000EAF6E8E85F00CDE5F25FF0FFE4E05F3206
:1004A0000000C2FBF0E0E12DEAE05F000000D1F0C7
:1004B000E0E1E0F22E5F00000000CAEEEB2DE2EE7C
:1004C0005FF1F0E0E12ED1F0E0E1E0F2FBE2E0EDFF
:1004D000E8E9EDE5F2000000000000000000D1D0E6
:1004E000C0C1CED2C0CB00000000CCEEE4F3EBFCE8
:1004F0005F0000000000CDE5F25FEAEEEDF2F0EE05
:10050000EBFFCEF2EAE0E75FECEEE4F3EBFFCAEEDE
:10051000EB2DE2EE5FF1F0E0E12ECDE5F25FF1E2EE
:10052000FFE7E85FF100CAEEEDF2F0EEEBFC5FED05
:10053000E500EFF0EEE8E7E2EEE4E8F2F1FFCCD020
:100540002DCA5FF1E5EAF62E0000CCCEC4D3CBC8AD
:100550003A000000000000C2DBD0C0C1CED2CAC049
:10056000000000D0C5D1D3D0D1C02100000000C709
:10057000E0ECE5EDE8F2E500000000ECEEE4F3EB82
:10058000FC000000000000CEC1CDD3CBC8D2DC3FC0
:10059000000000CEE1EDF3EBE5EDE05FE2FBF0D132
:1005A000D2C5D0C5D2DC3F00000000C2C5D1DC5F9F
:1005B000C5C5CFD0CECC00D1D0C0C1C0D2DBC22EF9
:1005C000000000C4E0EDEDFBE5000000000000CEFF
:1005D000E1EDF3EBE5EDFB00000000D1F2E8F0E027
:1005E000EDE8E52E2E2E00CEE1EDF3EB5FE2FBF021
:1005F000E0E13FCFD0CEC2C5D0C8D2DC3F0000433F
:100600006865636B5F6F66000000005F5F5F646931
:1006100073706C61790000C1E1C3E3C4E4C6E6C74E
:10062000E7C8E8CBEBCFEFD3F3D4F4D6F6D7F76037
:100630005F605F605F605F605F605F5F605F605FC3
:10064000605F605F605F60D2E5F1F25FEAEDEEEF60
:10065000EEEA00D2E5F1F25FE2F5EEE4EEE200D27E
:10066000E5F1F25FE0E4F0E5F1E000D2E5F1F25F00
:10067000F0E5EBE5000000D0E5EBE55FC4CA5FE222
:10068000EAEB00D0E5EBE55FC4CA5FE2FBEAEBD240
:10069000E5F1F25F52535FCCD0CE00D2E5F1F25FCC
:1006A00052535FCCD0CA00CFF0E8EDFFF2EE5F000E
:1006B0000000005F5F5FD2C5D1D200000000005F84
:1006C000CECACECDD7C5CD0000000031323334358F
:1006D00036BF005F002F001F0017000F000B000740
:1006E0000003007F012D170B0806040302015A3C8A
:1006F0001E0F0A08050403017810220020010203DE
:1007000004050607080000C100810040000100C088
:1007100000800041000100C000800041000000C1D5
:1007200000810040000100C000800041000000C1C5
:1007300000810040000000C100810040000100C0B5
:1007400000800041000100C000800041000000C1A5
:1007500000810040000000C100810040000100C095
:1007600000800041000000C100810040000100C085
:1007700000800041000100C000800041000000C175
:1007800000810040000100C000800041000000C165
:1007900000810040000000C100810040000100C055
:1007A00000800041000000C100810040000100C045
:1007B00000800041000100C000800041000000C135
:1007C00000810040000000C100810040000100C025
:1007D00000800041000100C000800041000000C115
:1007E00000810040000100C000800041000000C105
:1007F00000810040000000C100810040000100C0F5
:1008000000800041000100C000800041000000C1E4
:1008100000810040000000C100810040000100C0D4
:1008200000800041000000C100810040000100C0C4
:1008300000800041000100C000800041000000C1B4
:1008400000810040000000C100810040000100C0A4
:1008500000800041000100C000800041000000C194
:1008600000810040000100C000800041000000C184
:1008700000810040000000C100810040000100C074
:1008800000800041000000C100810040000100C064
:1008900000800041000100C000800041000000C154
:1008A00000810040000100C000800041000000C144
:1008B00000810040000000C100810040000100C034
:1008C00000800041000100C000800041000000C124
:1008D00000810040000000C100810040000100C014
:1008E00000800041000000C100810040000100C004
:1008F00000800041000100C000800041000000C1F4
:1009000000810040000000C000C1000100C30003DE
:10091000000200C200C60006000700C7000500C5AF
:1009200000C4000400CC000C000D00CD000F00CF6F
:1009300000CE000E000A00CA00CB000B00C900095F
:10094000000800C800D80018001900D9001B00DBFF
:1009500000DA001A001E00DE00DF001F00DD001DAF
:10096000001C00DC001400D400D5001500D70017CF
:10097000001600D600D20012001300D3001100D1DF
:1009800000D0001000F00030003100F1003300F31F
:1009900000F20032003600F600F7003700F50035AF
:1009A000003400F4003C00FC00FD003D00FF003F6F
:1009B000003E00FE00FA003A003B00FB003900F95F
:1009C00000F80038002800E800E9002900EB002BBF
:1009D000002A00EA00EE002E002F00EF002D00EDAF
:1009E00000EC002C00E40024002500E5002700E7CF
:1009F00000E60026002200E200E3002300E10021DF
:100A0000002000E000A00060006100A1006300A3DE
:100A100000A20062006600A600A7006700A50065AE
:100A2000006400A4006C00AC00AD006D00AF006F6E
:100A3000006E00AE00AA006A006B00AB006900A95E
:100A400000A80068007800B800B9007900BB007BFE
:100A5000007A00BA00BE007E007F00BF007D00BDAE
:100A600000BC007C00B40074007500B5007700B7CE
:100A700000B60076007200B200B3007300B10071DE
:100A8000007000B00050009000910051009300539E
:100A900000520092009600560057009700550095AE
:100AA00000940054009C005C005D009D005F009F6E
:100AB000009E005E005A009A009B005B009900595E
:100AC000005800980088004800490089004B008BBE
:100AD000008A004A004E008E008F004F008D004DAE
:100AE000004C008C004400840085004500870047CE
:100AF00000460086008200420043008300410081DE
:100B00000080004000FF0000A6110B00B907C807D5
:100B1000D6070708D1088D0C930C090E420ECD0F95
:100B20004D100100551008005F109B10D710E01009
:100B3000FA10141158119411A800A11D5800291D74
:100B4000A11DA11DA11DA11DA11DA11DA11DA11DB5
:100B5000A11DA11DA11DA11DA11DA11DA11D6B1DDB
:100B6000A11DA11DA11DA11DA11DA11DA11D1D1D19
:100B70001F1D211D231D251D271D2B1D2D1D2F1D57
:100B8000311D331D351D371D391D3B1D3D1D3F1DBD
:100B9000411D431D451D471D491D4B1D4D1D4F1D2D
:100BA000511D531D551D571D591D5B1D5D1D5F1D9D
:100BB000611D631D651D671D691D6D1D6F1D711D07
:100BC000731D751D771D791D7B1D7D1D7F1D811D6D
:100BD000831D851D871D891D8B1D8D1D8F1D911DDD
:100BE000931D951D971D991D9B1D9D1D9F1D00000B
:100BF00092250B00101F9225341F541F9420702241
:100C000099229225412475245F25010054350C005A
:100C10000F3519352235253522352835223522352F
:100C20002B352B35343537350FE107BB00E304BBDB
:100C30000FE005BB09E201BB06E002B908EF03B90A
:100C400001E000936500089508EE13E01BBD0ABDA6
:100C50000DE00EBD0DE000938A0000E21CE1109350
:100C600087000093860000E100937D0000E903BD4A
:100C70000DE005BD02E907BF08950E944E3780E0F0
:100C800002EA002E04E0102E61E470E0F001AB01F6
:100C900019E220E00E94413726E230E002EA14E047
:100CA0000E94B633012B11F0806101E002EA002EB0
:100CB00004E0102E6AE670E0F001AB0119E220E0DA
:100CC0000E94413726E230E002EA14E00E94B63387
:100CD000012B81F0806201E084FB66F402EA002EC1
:100CE00004E0102E61E470E0F001AB0119E220E0B5
:100CF0000E94413747E650E00E9490360F3F31F0A6
:100D000040E950E00E9490360F3F19F40E94111AFA
:100D100080E38093C804A0E0B0E080E0803128F553
:100D20006BEC74E0482F50E00CE110E00E94BA3602
:100D300023E9022E20E0122E000E111EFB01A0015D
:100D40001CE120E00E9441372CE130E00BEC14E084
:100D50000E94B633012B39F0482F01E010E00E94C9
:100D6000C236A02BB12B8395D9CFA093C904B093E1
:100D7000CA04E4E00C9457379A938A9380E090E099
:100D8000AD98C49A07B3007F07BB803107E2900794
:100D9000D0F4AD9A04E010E00E94E72BB39902C0B2
:100DA00080EF9FEFAD9805E010E00E94E72BAD9A31
:100DB00005E010E00E94E72BAD9804E010E00E94EF
:100DC000E72B0196E2CF899199910895C49A07B3D0
:100DD0000F6007BBAC98AD9A00E117E20E94E72BC9
:100DE000AD98AD9A00E117E20E94E72BAD9837D09D
:100DF000C3DF00E00E94A01C06E00E94A01C089532
:100E000000913208053050F500913208005049F049
:100E10000A9571F00A9571F00A9571F00A9599F0AA
:100E200018C0C49A07B30F6007BBAC98AD9A11C045
:100E3000AD980FC0AD9A0DC0AD98C49807B30F60C0
:100E400007BB0DD006C000E00E94A01C06E00E9477
:100E5000A01C009132080395009332080895AC98C5
:100E600000E00E94A01C00E00E94A01C00E00E9484
:100E7000A01C00E00E94A01C00E00E94A01C7CDFDF
:100E800002E00E94A01C02E00E94A01C0AE00E9456
:100E9000A01C72DF20E010E000E00E94741C6CDFF8
:100EA0000E94921C08950E944A3700913308053031
:100EB00029F020E010E001E00E94741C00913D0840
:100EC000002369F0989B0BC0999B09C09A9B07C0AF
:100ED0009B9B05C000913D080A9500933D08009139
:100EE00033080530F8F00E94601400939F040E94BC
:100EF0009E1400913D080023A9F4E3E3F8E0058582
:100F000003FF10C00E94CD180E942F160E94BC152E
:100F10000E94DB170E9400170E947C160E944D174A
:100F20000E946018B0E0B03380F420E20B2F10E094
:100F3000F801E05DFD4F208320E20B2F10E0F80167
:100F4000E05AFD4F2083B395EECFB0E0BC3048F4BB
:100F500020E20B2F10E0F801E057FD4F2083B395FE
:100F6000F5CF00913308E6E0F0E0FBBFFBE00C9426
:100F7000F1360E94901200913D08002339F404E1FB
:100F800000933D0801E00093330877DE0C94A6112E
:100F90000E949C1200913D08002331F402E300936B
:100FA0003D0802E0009333080C94A6110CEB10E00E
:100FB0000E94C81A08EC10E00E94011B00E0009398
:100FC0009A0401E00093A30401E00093A404B0E0BC
:100FD000B43048F421E00B2F10E0F801EE55FB4F40
:100FE0002383B395F5CF0091C804002311F00C942E
:100FF000A61100913D08002341F405E00093330859
:1010000020E010E000E00E94741C0C94A611E3E3C1
:10101000F8E005850E7F0587E3E3F8E005850F7EA0
:101020000587009134080430E0F4E3E3F8E0058537
:1010300001FD05C00CE011E00E94C81A0EC04091ED
:10104000340850E00BE010E00E94BA36980100EE40
:1010500010E0020F131F0E94C81A02E00E94B3138F
:101060009EC000913408043041F50091A204002391
:1010700091F400EE10E00E94C81AE3E3F8E0058561
:1010800001FD04C00091A3040E94BB1B07E111E015
:101090000E94011B84C0E3E3F8E0058501FD04C064
:1010A0000091A3040E94BB1B0BEE10E00E94C81A23
:1010B00003E211E00E94011B72C000913408053068
:1010C00061F50091A3040E94BB1B0BEE10E00E948F
:1010D000C81A20E632E00FE211E00E949C1AB02FFD
:1010E000E3E3F8E0058501FD14C00B2F10E020E6D6
:1010F00032E0200F311F4091A40450E00BE010E0DB
:101100000E94BA36A8010FE211E0040F151F0E94D9
:101110009C1A02E00E94B31342C0009134080630CA
:1011200061F50091A3040E94BB1B0BEE10E00E942E
:10113000C81A20E632E006EA13E00E949C1AB02F9B
:10114000E3E3F8E0058501FD14C00B2F10E020E675
:1011500032E0200F311F4091A50450E008E010E07C
:101160000E94BA36A80106EA13E0040F151F0E9478
:101170009C1A02E00E94B31312C000913408073099
:1011800019F40E94B8120BC00CEB10E00E94C81AB0
:1011900008EC10E00E94011B0EE100933D080C9446
:1011A000A61100913808A02F0E94A9110091A20455
:1011B000023029F00091A204033009F0D2C020E3EC
:1011C00032E006E014E00E949C1A802FE3E3F8E08E
:1011D000058501FD0AC090E020E332E0280F391FA9
:1011E0000A2F0E94621B839507C00FE590E0FC0167
:1011F000E05DFD4F008383950091A9041091AA043E
:101200004A2F0E94C83601700023A9F50091C50439
:10121000002339F420E632E00AE814E00E949C1A28
:1012200086C00091A30310E04A2F4A950E94CE3653
:1012300001700023A1F0E3E3F8E0058501FD0CC097
:1012400020E632E00EEC13E00E949C1A0091A2030B
:101250000E94A41D009362020E94F41B68C0E3E395
:10126000F8E0058501FD63C020E632E00AE814E0FD
:101270000E949C1A5CC04A2F4A9501E010E00E942F
:10128000C23600951091A30310231093A30390E09E
:1012900020E332E0280F391F0EEB13E00E949C1A66
:1012A0000091A204023081F54A2F0091A40310910D
:1012B000A5030E94C8360170002331F0E3E3F8E093
:1012C00005850061058733C00091A6031091A7032F
:1012D0004A2F0E94C8360170002349F14A2F01E0CD
:1012E00010E00E94C23600951095EFE9F3E02081EE
:1012F0003181202331232083318320E632E002E84C
:1013000013E00E949C1A13C00091A204033079F4E8
:101310004A2F0091A4031091A5030E94C8360170C2
:10132000002329F0E3E3F8E00585006105870091DB
:1013300040081091410800731070003220E012073D
:1013400061F420E332E00EE813E00E949C1A20E6EC
:1013500032E00AE913E00E949C1A01E00E94B313F4
:10136000CEC220E332E006E014E00E949C1A802FF7
:10137000E3E3F8E0058501FD08C090E020E332E0FA
:10138000280F391F0A2F0E94621B83950091A20427
:101390000130B9F490E020E332E0280F391F40918A
:1013A000A50450E008E010E00E94BA36A80106EA61
:1013B00013E0040F151F0E949C1A01E00E94B31352
:1013C00025C00091A9041091AA04409138080E94F8
:1013D000C8360170002371F490E020E332E0280F5A
:1013E000391F06EC13E00E949C1A13E000E00E94F3
:1013F000C6130CC090E020E332E0280F391F0EEB3B
:1014000013E00E949C1A01E00E94B3130091A20411
:10141000013009F082C10091A504013009F0ABC090
:101420000091A9041091AA044A2F0E94C8360170A5
:10143000002309F09AC009B310E03A2F3A9522E050
:10144000329F402D0E94CE360170002331F0E3E33D
:10145000F8E005850061058752C209B310E022E07B
:10146000A29F402D4A950E94CE360170002309F4B8
:1014700062C002E0A09F402D4A9501E010E00E946A
:10148000C23600951091A10310231093A10320E60A
:1014900032E00BE511E00E949C1A802F1091A3040A
:1014A00006E0109F0BEF000E402C0091A4040130C9
:1014B00099F490E020E632E0280F391F442D50E0E7
:1014C0000AE010E00E94BA36A80106E611E0040F17
:1014D000151F0E949C1A29C00091A404023099F49F
:1014E00090E020E632E0280F391F442D50E00AE05A
:1014F00010E00E94BA36A8010AE112E0040F151F9D
:101500000E949C1A12C090E020E632E0280F391F9A
:10151000442D50E00AE010E00E94BA36A8010EEC1B
:1015200012E0040F151F0E949C1A20E632E00A2FD9
:101530000E94B11AE4C109B310E022E0A29F402D3D
:101540004A950E94CE360170002309F0D8C102E00E
:10155000A09F402D4A9501E010E00E94C2361091F4
:10156000A103102B1093A103CAC1E3E3F8E00585A2
:1015700000610587C4C10091A504023019F50091EE
:10158000A9041091AA044A2F0E94C83601700023B2
:1015900099F409B310E03A2F3A9522E0329F402D9A
:1015A0000E94CE360170002309F4A9C1E3E3F8E0FC
:1015B000058500610587A3C1E3E3F8E005850061C7
:1015C00005879DC10E94C8190091A9041091AA0421
:1015D0004A2F0E94C8360170002331F4E3E3F8E09B
:1015E0000585006105878BC14A2F0091A4031091E6
:1015F000A5030E94C8360170002331F0E3E3F8E050
:101600000585006105877BC10091A6031091A703A2
:101610004A2F0E94C8360170002309F465C04A2F82
:1016200001E010E00E94C23600951095EFE9F3E06A
:1016300020813181202331232083318320E632E051
:101640000BE511E00E949C1A802F1091A30406E084
:10165000109F902D9A950091A4040130A1F4082FB9
:1016600010E020E632E0200F311F492F50E00AE061
:1016700010E00E94BA36A80106E611E0040F151F1B
:101680000E949C1A2BC00091A4040230A1F4082FE0
:1016900010E020E632E0200F311F492F50E00AE031
:1016A00010E00E94BA36A8010AE112E0040F151FEB
:1016B0000E949C1A13C0082F10E020E632E0200F91
:1016C000311F492F50E00AE010E00E94BA36A8010D
:1016D0000EEC12E0040F151F0E949C1A20E632E067
:1016E0000A2F0E94B11A0BC10091A6031091A70303
:1016F0004A2F0E94C8360170002309F000C14A2F0A
:1017000001E010E00E94C236EFE9F3E02081318170
:10171000202B312B20833183F2C00091A2040023BF
:1017200009F0EDC0A53020F00A2F0550402E03C06F
:101730000A2F0A95402E0091A9041091AA044A2F5D
:101740000E94C8360170002309F092C0A43011F045
:10175000A83041F40A2F0E94BB1B0AE814E00E9443
:10176000011BF4C509B310E022E0429E402D0E9407
:10177000CE360170002389F009B310E022E0429ECA
:10178000402D43950E94CE360170002331F4E3E3EF
:10179000F8E0058500610587B2C009B310E022E0DA
:1017A000429E402D0E94CE360170002391F009B375
:1017B00010E022E0429E402D43950E94CE360170FB
:1017C000002339F020E632E00AE814E00E949C1A77
:1017D00096C009B310E022E0429E402D0E94CE3612
:1017E0000170002301F509B310E022E0429E402D74
:1017F00043950E94CE3601700023A9F002E0409E7E
:10180000402D439501E010E00E94C23600951091F2
:10181000A10310231093A10320E632E006E914E0AF
:101820000E949C1A6CC009B310E022E0429E402D39
:101830000E94CE360170002309F061C009B310E0A8
:1018400022E0429E402D43950E94CE360170002337
:1018500009F055C002E0409E402D439501E010E0A4
:101860000E94C2361091A103102B1093A10347C010
:101870004A2F0091A4031091A5030E94C83601705D
:10188000002331F0E3E3F8E005850061058737C008
:101890000091A6031091A7034A2F0E94C836017039
:1018A0000023B1F04A2F01E010E00E94C2360095FB
:1018B0001095EFE9F3E0208131812023312320834B
:1018C000318320E632E006E914E00E949C1A17C03A
:1018D0000091A6031091A7034A2F0E94C8360170F9
:1018E000002369F44A2F01E010E00E94C236EFE9BC
:1018F000F3E020813181202B312B20833183E3E3FE
:10190000F8E0058504FF06C020E632E004ED10E0B3
:101910000E949C1A02E027D719C520E010E000E0E1
:101920000E94741C13C50091A9041091AA04012BF4
:1019300081F406E215E00E94C81A02E315E00E9455
:10194000011B00913D08002319F405E000933308C2
:10195000FDC40E94621CA02F00913908083018F0C5
:1019600007E000933908009139080395602E009133
:101970003408015039F10A95F1F10A9509F48BC048
:101980000A9509F499C00A9509F4A7C00A9509F4C3
:10199000EDC0E3E3F8E0058501FD04C000E000933D
:1019A000900204C0009138080E94BB1B06E014E0BE
:1019B0000E94C81A062D0E94BB1B0AE214E00E9476
:1019C000011BC4C4009138080E94BB1B06E014E050
:1019D0000E94C81AE3E3F8E0058501FD04C000E0B9
:1019E0000093900203C0062D0E94BB1B0AE214E084
:1019F0000E94011BABC40091A9041091AA044A2FB4
:101A00000E94C8360170002381F406E215E00E94AE
:101A1000C81A02E315E00E94011B00913D08002353
:101A200019F400E00093340891C495E222E930E013
:101A30007724260D371D4A2F50E00CE110E00E945C
:101A4000BA36200F311FA9010E9490360E94BB1B9D
:101A500010E0F801E057FD4F908302EA14E00E9485
:101A6000C81A29E930E0062D10E0000F111F200FE1
:101A7000311F4A2F50E00CE110E00E94BA36200FCF
:101A8000311FA9010E9493360E94C31B0EEA14E085
:101A90000E94011B5BC4E3E3F8E0058501FF05C07C
:101AA00002EA14E00E94C81A02C001E05CD60AEB08
:101AB00014E00E94011B4AC402EA14E00E94C81A02
:101AC000E3E3F8E0058501FF05C00AEB14E00E949E
:101AD000011B3CC402E047D639C495E222E930E05C
:101AE0007724260D371D4A2F50E00CE110E00E94AC
:101AF000BA36200F311FA9010E9490360E94BB1BED
:101B000010E0F801E057FD4F908302EA14E00E94D4
:101B1000C81A20E632E006E314E00E949C1A802FE7
:101B2000009138080E94A41D90E0FC01E05AFD4F8E
:101B30000083839500E290E0FC01E05AFD4F0083B2
:101B4000839590E020E632E0280F391F02E414E08C
:101B50000E949C1A800F062D0E94A41D90E0FC019B
:101B6000E05AFD4F008302E0FED5F0C30091A004CF
:101B7000002349F406EC14E00E94C81A02ED14E0B8
:101B80000E94011BE3C329E930E0062D10E0000F9D
:101B9000111F200F311F4A2F50E00CE110E00E946E
:101BA000BA36200F311FA9010E9493360E94C31B31
:101BB0000EEA14E00E94C81A20E632E006E314E0C0
:101BC0000E949C1A802F009138080E94A41D90E06A
:101BD000FC01E05AFD4F0083839500E290E0FC0198
:101BE000E05AFD4F0083839590E020E632E0280F15
:101BF000391F02E414E00E949C1A800F062D0E94F7
:101C0000A41D90E0FC01E05AFD4F008302E0ABD53B
:101C10009DC300913D08002319F405E000933308AB
:101C20000EED14E00E94C81A20E632E00AEE14E03D
:101C30000E949C1A802F90E020E632E0280F391F86
:101C4000009138080E94621B800F0091A2040023BB
:101C5000B1F40091A204013091F401E490E0FC01A0
:101C6000E05AFD4F008383950091390803950E9447
:101C7000A41D90E0FC01E05AFD4F0083839502E033
:101C800072D564C300913D08002319F405E0009368
:101C9000330800913408015009F44BC00A9509F447
:101CA0000DC10A9509F46BC10091A2040023B1F49F
:101CB000E3E3F8E0058501FF05C006EF14E00E94AC
:101CC000C81A02C001E04FD5E3E3F8E0058501FF43
:101CD00002C0E8D43BC302E046D538C30091A20459
:101CE000013039F420E332E006EF14E00E949C1A40
:101CF00035C0E3E3F8E0058501FF05C006EF14E019
:101D00000E94C81A02C001E02ED520E632E006E3A8
:101D100014E00E949C1A802F009138080E94A41D94
:101D200090E0FC01E05AFD4F0083839502E01BD553
:101D30000DC30091A204002331F402E015E00E94DB
:101D4000C81AB0D403C30091A204013009F09EC0A8
:101D500020E332E002E015E00E949C1A2CE332E01E
:101D60000AE415E00E949C1A20E632E006E014E046
:101D70000E949C1A802F90E020E632E0280F391F45
:101D8000009138080E94621B1091A3041A9506E086
:101D9000109F902D1091A5041A9502E0109F900DB0
:101DA00000913908023009F493958CE00091A40465
:101DB0000130A9F4082F10E020E632E0200F311F97
:101DC000492F50E00AE010E00E94BA36A80106E66A
:101DD00011E0040F151F0E949C1A800F2DC0009166
:101DE000A4040230A9F4082F10E020E632E0200F0E
:101DF000311F492F50E00AE010E00E94BA36A801D6
:101E00000AE112E0040F151F0E949C1A800F14C0F3
:101E1000082F10E020E632E0200F311F492F50E05C
:101E20000AE010E00E94BA36A8010EEC12E0040F9E
:101E3000151F0E949C1A800F20E0082F10E0F80167
:101E4000E05AFD4F208383952CE632E0009138085C
:101E50000E94B11A12E00CE009D500E00E94DE1CDD
:101E60002091360830E000E312E0020F131F0E94B9
:101E7000651A00E40E94DE1C2091370830E000E67D
:101E800012E0020F131F0E94651A60C202E015E003
:101E90000E94C81A20E632E006E314E00E949C1A71
:101EA000802F009138080E94A41D90E0FC01E05AA8
:101EB000FD4F0083839502E056D448C220E332E010
:101EC00007E515E00E949C1A2CE332E00FE615E0CE
:101ED0000E949C1A20E632E003E615E00E949C1A5C
:101EE0008CE02CE632E00BE715E00E949C1A800F94
:101EF00090E020E632E0280F391F009138080E9458
:101F0000621B800F0091A204002321F00091A20423
:101F1000013091F401E490E0FC01E05AFD4F0083B0
:101F2000839590E020E632E0280F391F00913908B0
:101F300003950E94621B800F00E090E0FC01E05AD4
:101F4000FD4F0083839512E00CE090D400E00E94E6
:101F5000DE1C2091360830E000E312E0020F131F70
:101F60000E94651A00E40E94DE1C2091370830E0D0
:101F700000E612E0020F131F0E94651AE7C10AE192
:101F800015E00E94C81A009138080E94BB1B902FD0
:101F90000EE315E00E94011BD9C1009134080150E5
:101FA00099F10A9509F452C000913508043089F47A
:101FB0000FE915E00E94C81AE3E3F8E0058501FF88
:101FC00005C007EB15E00E94011BC0C102E0CBD3A6
:101FD000BDC100913508053089F40FE915E00E9474
:101FE000C81AE3E3F8E0058501FF05C00BEA15E038
:101FF0000E94011BABC102E0B6D3A8C107EE15E0F9
:102000000E94C81A7FD3A2C10BED15E00E94C81A26
:1020100000913508043029F407EB15E00E94011BFC
:102020000AC000913508053029F40BEA15E00E943A
:10203000011B01C067D300913D08002369F502E050
:102040000093340804E100933D0880C100913508F5
:10205000043021F000913508053089F400913D08E5
:10206000002349F003EC15E00E94C81A0FEC15E0BC
:102070000E94011B6BC100E00093330867C100910F
:102080003D08002331F003E915E00E94C81A3AD355
:102090005DC105E00093330859C100913408E2E2C4
:1020A000F0E0FBBFFBE00C94F13603EF15E00E947B
:1020B000C81A02E058D300E500933D0847C10091DB
:1020C0003D080D3348F00FEF15E00E94C81A0BE0F1
:1020D00016E00E94011B3AC100913D08093248F008
:1020E00007E116E00E94C81A03E216E00E94011BF5
:1020F0002DC100913D08053148F00FE216E00E9425
:10210000C81A0FE216E00E94011B20C100913D0891
:10211000002349F00BE316E00E94C81A0BE316E017
:102120000E94011B13C100913D08002319F402E035
:10213000009334080BC107E416E00E94C81A00910E
:10214000E7041091E804012B19F009ED00936002F7
:102150000091E9041091EA04012B19F00AED0093B3
:1021600063020091ED041091EE04012B19F00CE3D1
:10217000009365020091EB041091EC04012B19F01F
:102180000EE3009367020091EF041091F004012B1D
:1021900031F009ED009360020AED0093630200E460
:1021A0000E94DE1C00E612E00E94881ACFC003E500
:1021B00016E00E94C81A0E94F41B02E0D4D2C6C0E6
:1021C0000FE516E00E94C81A20E632E004EA10E0AB
:1021D0000E949C1A802F90E020E632E0280F391FE1
:1021E00040E450E00E9490360E94621B839502E01A
:1021F000BAD2ACC00BE616E00E94C81A0091E70400
:102200001091E804012B31F40091E9041091EA04E3
:10221000012B29F007E716E00E94011B97C003E895
:1022200016E00E94011B92C00FE816E00E94C81A37
:1022300020E632E007EA16E00E949C1A802F009107
:102240002D08002391F100912C0802950F700E9437
:10225000773390E0FC01E05AFD4F008383950091B5
:102260002C080F700E94773390E0FC01E05AFD4F7C
:102270000083839500912D080A3061F4959A0091AE
:102280002C08039500939C00E9EFF4E000810061C5
:10229000008306C0E9EFF4E000810F7E008395988B
:1022A00000912D080A9500932D0802E05CD24EC0E3
:1022B0000BE916E00E94C81A20E632E007EA16E0B1
:1022C0000E949C1A802F00912B08002339F1009165
:1022D0002A0802950F700E94773390E0FC01E05AC3
:1022E000FD4F0083839500912A080F700E94773379
:1022F00090E0FC01E05AFD4F0083839500912B088C
:102300000A3031F41A9A00912A0803950CB901C0D9
:102310001A9800912B080A9500932B0802E023D20B
:102320000CE300933D0812C003EB16E00E94C81AAC
:102330000FEB16E00E94011B00913D08002331F4D1
:1023400000E00093330804E100933D08E8E00C94BA
:1023500053370E944F379091A204E3E3F8E00585DC
:1023600000FDDBC0E3E3F8E00585016005870FE3CE
:102370000093C5040FEF1FEF0093AB041093AC0460
:102380000FEF1FEF0093AD041093AE0400E0009335
:10239000A303923019F0933009F045C080E0A0E02B
:1023A0008630B0F409B310E0482F0E94CE36017099
:1023B000002361F0482F01E010E00E94C236009532
:1023C0001091C50410231093C504A3958395E8CFFD
:1023D00001E00093A2030091A203073088F400916A
:1023E000C50410E04091A2034A950E94CE360170C8
:1023F000002331F40091A20303950093A203EBCFD5
:102400000091A203073008F44AC00091A90410917A
:10241000AA040F7F002309F042C0E3E3F8E005853A
:10242000006105873CC09130D1F50091A3040130D3
:1024300021F403E00093C50407C00091A304023017
:1024400019F40FE00093C5040091A304013089F44E
:102450000091A504023069F40091A404013021F038
:102460000091A404033029F4E2EAF4E003A10D7F13
:1024700003A30091A504033091F40091A404023059
:1024800071F40091A304013021F00091A304033002
:1024900031F400E010E00093AD041093AE049130ED
:1024A00011F0992371F50E94391CA02F80E0833030
:1024B00040F50091A9041091AA044A2F480F0E94E8
:1024C000C83601700023D9F002E0809F402D01E062
:1024D00010E00E94C23600951091C504102310939D
:1024E000C50402E0809F402D439501E010E00E946A
:1024F000C23600951091C50410231093C50483952E
:10250000D6CF0091C5040093A1030091AD041091B2
:10251000AE0400939F031093A003E3E00C9458379C
:1025200000E0009390020CE810E00E94C81A08E94D
:1025300010E00E94011B08959A938A9320E332E0F1
:1025400004EA10E0F9D7802F90E020E332E0280F72
:10255000391F40E450E00E9490360E94621B01E067
:1025600002D100EB10E00E94011B8991999108951E
:102570000E944E370091A204002321F00091A20492
:10258000013011F481E00BC00091A204023021F06F
:102590000091A204033011F482E001C084E0182FFE
:1025A0000CE064D1002339F004E0009333080E946A
:1025B000391C0093380800913508002381F401E0AC
:1025C0000093350806ED13E0E3D70AEF13E00E940D
:1025D000011B0E947E2C00E00093370860C002EED1
:1025E00013E0D6D70091A9041091AA04012B29F475
:1025F0000EEE13E00E94011B52C080E0A0E080318B
:1026000078F50091A9041091AA04482F0E94C836B9
:102610000170002319F1882311F496E104C0082FFA
:102620000E943A1B902F092F02950F700E94A41D43
:10263000B0E0FD01E05AFD4F0083A395092F0E94F1
:10264000A41DB0E0FD01E05AFD4F0083A3950CE20C
:10265000B0E0FD01E05AFD4F0083A3958395CFCFF5
:10266000AC3090F480E0ACE08C3070F4082F10E0D7
:10267000F801E05AFD4F0081B0E0FD01E05AFD4F46
:1026800000838395A395F0CF00E40E94DE1C209187
:10269000370830E000E612E0020F131F16D7E4E01F
:1026A0000C9457379A938A9320E632E006E314E0BD
:1026B00043D7802F009138080E94A41D90E0FC01B0
:1026C000E05AFD4F0083839500E290E0FC01E05A60
:1026D000FD4F0083839590E020E632E0280F391FFC
:1026E0000EE414E029D7800F009139080E94A41D40
:1026F00090E0FC01E05AFD4F008302E034D0899164
:10270000999108959A938A9320E632E006E314E0C3
:1027100013D7802F009138080E94A41D90E0FC017F
:10272000E05AFD4F0083839500E290E0FC01E05AFF
:10273000FD4F0083839590E020E632E0280F391F9B
:1027400002E414E0F9D6800F0091390803950E9445
:10275000A41D90E0FC01E05AFD4F008302E003D08D
:102760008991999108958A93802F813039F400E0FE
:102770000E94DE1C00E312E0A8D606C000E40E941E
:10278000DE1C00E612E0A1D6899108959A938A93FF
:10279000902F812FE3E3F8E0058502FB00E000F9CC
:1027A000E3E3F8E0158511FB10E010F9011709F1DA
:1027B000E3E3F8E0058501FB00E010E000F9E3E366
:1027C000F8E000FB058502F9058700E010E000F95C
:1027D000E3E3F8E0058501FF0CC00091A104039537
:1027E0000093A1040091A104801718F400E0009365
:1027F000A104992361F400E00E94DE1C2091A10451
:1028000030E000E312E0020F131F5FD60BC000E4BC
:102810000E94DE1C2091A10430E000E612E0020FCD
:10282000131F53D689919991089500913C08002374
:1028300031F000913C080A9500933C080895E3E3C9
:10284000F8E0058501FD09C003E000933C08E3E3DF
:10285000F8E0058502600587089502E000933C08D2
:10286000E3E3F8E005850D7F05870895402F00918B
:102870003E08002331F000913E080A9500933E087F
:102880001DC000913F0800933E0800913608040FD8
:102890000093360800913708040F00933708209101
:1028A000360830E0419F2015310544F000E00093E8
:1028B000360800E00093370801E0089500E008952D
:1028C00030E020E02031C0F540E0022F10E0F801B8
:1028D000E350FC4F40830091A9041091AA04422FB9
:1028E0000E94C8360170002329F160E0683010F5BD
:1028F000422F50E00CE110E00E94BA3643E950E06C
:10290000400F511F70E0460F571F0E94903601354F
:1029100078F0462F01E010E00E94C236402F022FCF
:1029200010E0F801E350FC4F0081042B008331E0FC
:102930006395DCCF2395C6CF032F08959A938A938E
:1029400000E010E00093F8031093F90300E010E0BA
:102950000093FA031093FB0300E00093FC0300E0F4
:1029600010E000930E0410930F0480E0803108F013
:10297000B7C00091A9041091AA04482F0E94C8363C
:102980000170002309F4AAC003D5482F0091A403C5
:102990001091A5030E94C8360170002361F400E085
:1029A00010E0282F30E0220F331FF901E755FC4FCC
:1029B0000083118328C0082F10E0000F111FF801B9
:1029C000E755FC4F00811181093522E0120770F0B4
:1029D000482F01E010E00E94C236E8EFF3E02081CA
:1029E0003181202B312B208331830DC0082F10E043
:1029F000000F111FF801E755FC4F008111810F5F97
:102A00001F4F008311830091A6031091A703482F45
:102A10000E94C8360170002361F400E010E0282F06
:102A200030E0220F331FF901E755FC4F00A311A33B
:102A300028C0082F10E0000F111FF801E755FC4FC8
:102A400000A111A1093522E0120770F0482F01E022
:102A500010E00E94C236E8EFF3E022813381202BA0
:102A6000312B228333830DC0082F10E0000F111F7C
:102A7000F801E755FC4F00A111A10F5F1F4F00A304
:102A800011A3482F00919607109197070E94C8360E
:102A90000170002339F400E090E0FC01E05FFB4F9F
:102AA00000831CC090E0FC01E05FFB4F0081053615
:102AB00070F0482F01E010E00E94C236EEE0F4E032
:102AC00020813181202B312B2083318307C090E07E
:102AD000FC01E05FFB4F008103950083839546CFA7
:102AE00080E0863008F045C00091C50410E0482F12
:102AF0000E94CE3601700023D1F10091A80310E0AE
:102B0000482F0E94CE360170002361F400E010E0EF
:102B1000282F30E0220F331FF901E751FC4F0083CB
:102B2000118325C0082F10E0000F111FF801E75195
:102B3000FC4F00811181093522E0120758F0482F1F
:102B400001E010E00E94C2361091FC03102B10939C
:102B5000FC030DC0082F10E0000F111FF801E75112
:102B6000FC4F008111810F5F1F4F008311838395FC
:102B7000B8CF8991999108959A938A9300914704C7
:102B800010914804012B61F40091490410914A040A
:102B9000012B31F4EAE9F4E000810F7B00835CC093
:102BA00080E0803108F058C0482F00914704109110
:102BB00048040E94C8360170002309F1482F01E043
:102BC00010E00E94C23600951095E7E4F4E0208101
:102BD0003181202331232083318301E000933908A0
:102BE00090E0FC01EE55FB4F05850093380808E0A6
:102BF0000093330800E000933408AFD22DC0009159
:102C0000490410914A04482F0E94C83601700023DD
:102C100009F1482F01E010E00E94C236009510959E
:102C2000E7E4F4E0228133812023312322833383BC
:102C300002E00093390890E0FC01EE55FB4F05855A
:102C40000093380808E00093330800E0009334084C
:102C500084D202C08395A5CF8991999108959A93C2
:102C60008A9300919A04007E802F813250F4009163
:102C70009A04007E002311F401E001C000E000236B
:102C800009F037C000914B04002331F4EAE9F4E085
:102C900000810F7D00832DC080E0863050F50091CB
:102CA0004B0410E0482F0E94CE3601700023F9F04B
:102CB000482F01E010E00E94C236009510914B04AD
:102CC000102310934B0490E0FC01EE55FB4F058D53
:102CD00000933808082F017003950093390808E025
:102CE0000093330800E00093340837D202C0839584
:102CF000D4CF8991999108959A938A9300919A04D7
:102D0000007F802F813150F400919A04007F0023CE
:102D100011F401E001C000E0002309F06EC080E082
:102D2000803108F06AC0482F00914C0410914D0486
:102D30000E94C8360170002309F1482F01E010E01D
:102D40000E94C23600951095ECE4F4E020813181B8
:102D5000202331232083318301E00093390890E060
:102D6000FC01EE55FB4F05850093380808E0009301
:102D7000330801E00093340800D23FC000914E04B4
:102D800010914F04482F0E94C8360170002309F1AA
:102D9000482F01E010E00E94C23600951095ECE447
:102DA000F4E022813381202331232283338302E024
:102DB0000093390890E0FC01EE55FB4F0585009328
:102DC000380808E00093330801E000933408D5D1B7
:102DD00014C000914C0410914D04012B61F400913A
:102DE0004E0410914F04012B31F4EAE9F4E0008124
:102DF0000F7E008302C0839593CF899199910895A6
:102E00009A938A9300919A04087F802F893050F416
:102E100000919A04087F002311F401E001C000E052
:102E2000002309F037C000915004002331F4EAE98F
:102E3000F4E00081077F00832DC080E0863050F5EC
:102E40000091500410E0482F0E94CE3601700023FC
:102E5000F9F0482F01E010E00E94C2360095109171
:102E6000500410231093500490E0FC01EE55FB4FEA
:102E7000058D00933808082F0170039500933908D9
:102E800008E00093330801E00093340876D102C0D3
:102E90008395D4CF8991999108950E944F370091DD
:102EA0009A040C7F802F853050F400919A040C7F97
:102EB000002311F401E001C000E0002309F078C014
:102EC00080E08031A8F4082F10E0F801EF5AFB4FA2
:102ED0000081902F992351F00091A9041091AA0428
:102EE000482F0E94C8360170002341F48395E9CF32
:102EF000EAE9F4E000810B7F00835AC000910D04E1
:102F0000003808F055C000910D0406950695069509
:102F1000802F0091A9041091AA04482F0E94C8365E
:102F200001700023D1F1082F10E0F801EF5AFB4F98
:102F30000081902F10910D0408E0809F1019A12F9F
:102F4000092F10E04A2F0E94CE360170002351F164
:102F500000912D02013078F04A2F01E010E00E942C
:102F6000C236202F2095082F10E0F801EF5AFB4FB2
:102F7000008102230083082F10E0F801EE55FB4F7B
:102F8000058500933808A093390808E000933308BA
:102F900002E000933408E1D00BC000910D040760FB
:102FA00000930D0400910D04039500930D04A6CF2A
:102FB000E3E00C9458370E944F3700919A04802F19
:102FC000823048F400919A04002311F401E001C01A
:102FD00000E0002309F071C080E08031A8F4082FE0
:102FE00010E0F801ED59FB4F0081902F992351F02B
:102FF0000091A9041091AA04482F0E94C8360170BC
:10300000002341F48395E9CFEAE9F4E000810E7FE3
:10301000008353C000912604003808F04EC0009190
:103020002604069506950695802F0091A904109117
:10303000AA04482F0E94C8360170002399F1082F76
:1030400010E0F801ED59FB4F0081902F10912604FC
:1030500008E0809F1019A12F092F10E04A2F0E942D
:10306000CE360170002319F14A2F01E010E00E94D2
:10307000C236202F2095082F10E0F801ED59FB4FA4
:10308000008102230083082F10E0F801EE55FB4F6A
:10309000058500933808A093390807E000933308AA
:1030A0005CD00BC0009126040760009326040091B9
:1030B0002604039500932604ADCFE3E00C94583723
:1030C0009A938A9300919A040E7F802F833048F45C
:1030D00000919A04002311F401E001C000E00023F4
:1030E00009F038C080E0803150F5482F009161042C
:1030F000109162040E94C83601700023F1F0482F3D
:1031000001E010E00E94C23600951095E1E6F4E07F
:1031100020813181202331232083318390E0FC0101
:10312000EE55FB4F05850093380808E000933308FF
:1031300003E00093340811D002C08395D4CF0091EE
:10314000610410916204012B29F4EAE9F4E00081A2
:103150000D7F008389919991089500E000933608CE
:1031600000E0009337080AE000933E080AE000936D
:103170003F0804E100933D08089500E000933608FD
:1031800000E00093370804E100933E0804E1009357
:103190003F0808E200933D0808959A938A930091AE
:1031A0009A04002309F0F1C00091F8031091F9038B
:1031B00000934C0410934D040091FA031091FB030B
:1031C00000934E0410934F0400914C0410914D0451
:1031D000012B31F400914E0410914F04012B29F082
:1031E000EAE9F4E00081006100830091FC031091A2
:1031F000C50401230093500400915004002329F0DA
:10320000EAE9F4E0008108600083C2D00091A403E1
:103210001091A503009347041093480400914C04B7
:1032200010914D0400951095E7E4F4E02081318180
:1032300020233123208331830091A6031091A7031B
:103240000093490410934A0400914E0410914F04D6
:1032500000951095E7E4F4E02281338120233123A7
:10326000228333830091470410914804012B31F4E9
:103270000091490410914A04012B29F0EAE9F4E095
:103280000081006400830091A8031091C50401230C
:1032900000934B0400915004009510914B041023AF
:1032A00010934B0400914B04002329F0EAE9F4E069
:1032B00000810062008300910E0410910F042091A0
:1032C000A9043091AA0402231323009361041093EC
:1032D00062040091610410916204012B29F0EAE973
:1032E000F4E000810260008380E08031F0F500911D
:1032F000A9041091AA04482F0E94C8360170002327
:1033000091F190E0FC01E95DFB4F008190E0FC0150
:10331000ED59FB4F008300E090E0FC01E95DFB4FBD
:10332000008390E0FC01ED59FB4F0081002329F060
:10333000EAE9F4E000810160008390E0FC01E350E1
:10334000FC4F008190E0FC01EF5AFB4F008390E0BE
:10335000FC01EF5AFB4F0081002329F0EAE9F4E079
:103360000081046000838395C0CF00919A040076A9
:10337000002329F000919A04007600939A0400E05B
:1033800000930D0400E0009326048991999108951B
:103390000091A9041091AA04E4EAF3E020813181AC
:1033A00020233123208331830091AB041091AC049E
:1033B000E4EAF3E02081318120233123208331832B
:1033C0000091A9041091AA04E4EAF3E02281338178
:1033D00020233123228333830091AD041091AE0466
:1033E000E4EAF3E0228133812023312322833383F3
:1033F0000895B801142E10E0111590F4AB010E944D
:103400009036F9014081041729F0F9010081AB01E0
:103410000E94A1366F5F7F4F2F5F3F4F1395ECCF18
:1034200008959A938A9397EA80E08A3148F420E0DD
:10343000082F10E0F801E553FB4F20838395F5CF6B
:103440002AE130E00BEC14E00E94B6330093E5046F
:103450001093E60480E08031B0F4A895973A99F48F
:103460004CE12BEC34E0642F482F50E00CE110E0ED
:103470000E94BA36A80103E910E0040F151F462F79
:10348000B8DF8395E8CF8991999108959A938A93AB
:1034900095EA80E0893228F400E00093A204839545
:1034A000F9CF953A71F449E222EA34E001E410E000
:1034B000A0DFA89549E222EA34E00AE610E099DFAD
:1034C000A895AFDF8991999108950E944D37D80151
:1034D0004424AC9A80E044248C30B8F4FD0100818F
:1034E000002311F444244394442029F40C9190D2F5
:1034F000902F119601C090E2092F02950F7020D2F3
:10350000092F0F701DD28395E7CFE5E00C94563755
:103510000E944E37D801AC9A80E08C3050F40C9168
:1035200002950F700DD20C910F700AD211968395EF
:10353000F4CFE4E00C945737592F682FC80100E00E
:10354000FC011491F901108301962F5F3F4F039501
:10355000FC011491112311F00C3090F3862F952F5C
:1035600008950E944E37902FD90180E0FD0100811F
:103570000E3421F4092F0E9477330C931196839512
:103580000C91002311F08C3088F3E4E00C94573751
:103590000E944C37D80180E04424FD01049190E062
:1035A000FC01E05DFD4F008311968395FD010491C0
:1035B000002311F08C3088F3009190020023B1F0C9
:1035C0005524F201E057FD4F0081002379F08C3043
:1035D00068F45524F201E057FD4F008190E0FC01B2
:1035E000E05DFD4F008343948395EACF00E090E0D7
:1035F000FC01E05DFD4F008301E0B5D8E6E00C94EE
:1036000055370E944C37D80180E04424FD010491D5
:1036100090E0FC01E05AFD4F008311968395FD0177
:103620000491002311F08C3088F300919002002364
:10363000B1F05524F201E057FD4F0081002379F0ED
:103640008C3068F45524F201E057FD4F008190E082
:10365000FC01E05AFD4F008343948395EACF00E0DC
:1036600090E0FC01E05AFD4F008302E07CD8E6E0E8
:103670000C9455378A93802F4AE0082F0E94AC366D
:1036800016E0019F800D082F899108950E944C3704
:10369000280144E650E082010E94D436902FB92FD1
:1036A000A0E0242D492F50E004E610E00E94BA3635
:1036B000201B022FDFDF10E0A00FB11F8D01E6E01D
:1036C0000C9455370E944C37A02F2901A43630F1B5
:1036D0000A2F10E0DBDFC8018C01012F10E034D28B
:1036E000F201008301E0400E00E0501E44E08C0136
:1036F0000E94C83629D2F201008301E0400E00E0AA
:10370000501E082F21D2F201008301E0400E00E09C
:10371000501E00E0F201008303E02AC0AA30E0F06E
:103720000A2FA8DF10E0C80144E08C010E94C836CF
:103730000BD2F201008301E0400E00E0501E082F82
:1037400003D2F201008301E0400E00E0501E00E0D1
:10375000F201008302E00CC00A2FF6D1F2010083CF
:1037600001E0400E00E0501E00E0F201008301E0A5
:10377000E6E00C9455378A93802F20E932E0082F39
:10378000A1DF899108950E944E37C801883E03E069
:10379000900780F001E30093900200E30093910210
:1037A00000E30093920200E30093930200E0009391
:1037B000940217C08C016ADFD8018D01012F10E03F
:1037C000C3D10093900244E08D010E94C836BCD161
:1037D000009391020A2FB8D10093920200E0009367
:1037E0009302E4E00C94573700913308043031F52C
:1037F00020E02630A8F40091C50410E0422F0E947A
:10380000CE360170002351F030E0F901E553F94F55
:10381000049130E0F901E05AFD4F06832395E9CF8A
:10382000E3E3F8E0058501FF23C00FE54091A20323
:1038300050E0FA01E05AFD4F0583089520E026305C
:10384000B8F409B310E0422F0E94CE360170002375
:1038500069F030E0F901E553F94F3491022F10E09F
:10386000000F111FF801E05AFD4F30832395E7CF79
:10387000089543E620E0203188F430E0F901EE5568
:10388000FB4F0585102F112339F0141708F4412F31
:10389000113011F401E008952395EDCF042F089520
:1038A00001E020E0203168F430E0F901EE55FB4FF3
:1038B0003585132F112319F0011708F4012F2395D3
:1038C000F1CF089520E0203168F430E0F901EE55A1
:1038D000FB4F058510913808011711F4022F089548
:1038E0002395F1CF0FEF08950E944E37B02F912FFF
:1038F000A22FC49807B30F6007BBAC9800E020D09C
:1039000088E0BB2311F0846001E0992311F082600C
:1039100001E0AA2311F0816001E0082F11D0E4E05A
:103920000C945737C49807B30F6007BBAC9800E0FE
:1039300007D001E005D000E21EE40E94E72B0895C5
:103940008A93802FC49807B30F6007BB08B3007F2A
:1039500008BB082F0F7018B3102B18BBAD9A05E0E9
:1039600010E00E94E72BAD980AE010E00E94E72BE0
:10397000899108958A9307B3007F07BBC49AAC9AD4
:10398000AD9A0AE010E00E94E72B06B30295007F93
:10399000802FAD980AE010E00E94E72BAD9A0AE074
:1039A00010E00E94E72B06B30F70802BAD980AE061
:1039B00010E00E94E72B082F899108958A93802FA9
:1039C000C49807B30F6007BBAC988F7700E0082F4F
:1039D00002950F700860B4DF082F0F70B1DF899176
:1039E00008958A9380E00FE7E9DFAC9A05E0A8DF4D
:1039F00007E0A6DF0FE7E2DFBDDF802F873519F490
:103A0000C79801E003C0BF9AC79A00E08991089562
:103A10008A93802F8F3511F400E294C0803611F420
:103A20000FEF90C0803C10F4082F8CC0082FE8E303
:103A3000F0E0FBBFFBE00C94F13601E483C000EA48
:103A400081C002E47FC001EA7DC000EE7BC005E4D6
:103A500079C002EA77C003EA75C004EA73C005EAD8
:103A600071C006EA6FC00BE46DC007EA6BC00DE4DD
:103A700069C008E467C00FE465C008EA63C000E5F8
:103A800061C003E45FC004E55DC009EA5BC00AEA07
:103A900059C008E557C001EE55C00BEA53C00CEA07
:103AA00051C002EE4FC00DEA4DC00EEA4BC004EC0F
:103AB00049C00FEA47C000EB45C001EB43C001E637
:103AC00041C002EB3FC003EB3DC004EB3BC003EE43
:103AD00039C005E637C005EB35C006EB33C007EB50
:103AE00031C008EB2FC009EB2DC00AEB2BC00BEB4C
:103AF00029C00CEB27C00DEB25C00FE623C00EEB51
:103B000021C000E71FC003E61DC00FEB1BC009E783
:103B100019C004EE17C008E715C005EE13C000EC8D
:103B200011C001EC0FC006EE0DC002EC0BC003EC9F
:103B300009C004EC07C005EC05C006EC03C007ECA7
:103B400001C000E289910895102F1F701A3018F4F7
:103B5000105D012F0895012F0A5059F00A9559F070
:103B60000A9559F00A9559F00A9559F00A9559F0B5
:103B70000CC001E4089502E4089503E4089504E408
:103B8000089505E4089506E4089500E208959CD0A0
:103B90004FD044EF54E02BEE34E000E0CDD045EFC1
:103BA00054E02DEE34E001E0C7D042EF54E027EEC0
:103BB00034E002E0C1D043EF54E029EE34E003E00A
:103BC000BBD09A992EC09B992CC000E010E00093C6
:103BD000E7041093E80400E010E00093E904109378
:103BE000EA0400E000932D02E7EEF4E00085118581
:103BF0000F5F1F4F008711870091EF041091F004B1
:103C00000C3221E0120798F001E00093F10403E088
:103C10000093F60400E010E00093EF041093F0042A
:103C2000089500E010E00093EF041093F00408956D
:103C300000912C02039500932C0200912C02033377
:103C400008F441C0009133080530E8F100913308D1
:103C50000830C9F1009133080230A9F100E0009367
:103C60002C0200912D02039500932D0200912D024C
:103C70000F3F18F006E000932D0200913308083042
:103C800071F400913408023051F400912D02033098
:103C900058F0E3E3F8E005850860058705C0E3E335
:103CA000F8E0058508600587009133080A3059F06F
:103CB00000912D020F3039F400913308083019F0CB
:103CC00005E000933308089501B106950695069521
:103CD000102F00916300202F20FB00E005F9102B2E
:103CE00040E450E00E949036101721F400E0009369
:103CF0002E02089500912F02011731F010932F0228
:103D000000E000932E02089500912E020395009387
:103D10002E0200912E02053670F040E450E00E9421
:103D2000903620912F02021731F000912F0240E4CB
:103D300050E00E94A13608950E944E37602FF9018D
:103D40009A0103B310E0462F0E94CE360170002383
:103D5000D9F500E000932D02A0E4B8E00C91077FB4
:103D60000C93008111810E3E42E0140730F4008173
:103D700011810F5F1F4F00831183008111810B346C
:103D800040E0140739F402E0D9010C9301E00093FC
:103D9000F10433C0008111810C3241E0140739F481
:103DA00003E0D9010C9301E00093F10426C00081E7
:103DB0001181043F41E0140701F504E0D9010C939F
:103DC00001E00093F10419C0D9010C910023A9F47A
:103DD000808191818630904060F0008111810B34A8
:103DE00040E0140730F401E0D9010C9301E00093A6
:103DF000F10400E010E000831183E4E00C945737F5
:103E00000E944E370091F104002309F49DC6A0E002
:103E100000913308EEEEF0E0FBBFFBE00C94F136CE
:103E200000919D04053A89F40091F404043068F08F
:103E300000E000939D0409E00093330800E0009344
:103E4000340804E0009335086DC600919E040A3AD8
:103E500059F40091F504033038F00AE00093330878
:103E600000E0009334085EC60091C804002361F0AE
:103E70000091F204013060F40091F304013040F449
:103E80000091F604013020F40091F604033058F05C
:103E900003E000933308E3E3F8E005850F7D058731
:103EA00000E0009334083EC600913808802F00914E
:103EB00034080050045050F0005009F449C00A95ED
:103EC00009F490C00A9509F4EBC02CC60091F204E5
:103ED000013070F000913408033030F40091340860
:103EE0000395009334081EC600E0009334081AC6F8
:103EF0000091F304013070F000913408002331F098
:103F0000009134080A95009334080CC603E000932E
:103F1000340808C60091F404013090F00091340890
:103F20000093A20400913408002321F0009134088A
:103F3000013021F404E000933408F4C573D6F2C5CF
:103F40000091F504013018F000E000933308EAC551
:103F50000091F204013010F006D6E4C50091F3049C
:103F6000013010F0F4D5DEC50091F404023010F1F8
:103F70000091A204002311F455D6D4C505E00093A6
:103F800034080091A30410E0F801E15EFD4F0081C8
:103F900000FDC8C502E00093A4040091A30410E052
:103FA000F801E15EFD4F008101FDBCC503E0009317
:103FB000A404B8C50091F504023098F003E0009322
:103FC00033080091A2040093340802EA002E04E0B2
:103FD000102E61E470E0F001AB0119E220E00E94D4
:103FE0004137A0C50091F204013068F00091A304AC
:103FF00010E0F801E15EFD4F10810091A404C6D5E8
:104000000093A4048FC50091F304013068F000917F
:10401000A30410E0F801E15EFD4F10810091A404BB
:10402000CED50093A4047EC50091F404023080F143
:1040300006E000933408EFE1F2E00091A40410E000
:10404000E00FF11F4091A30450E003E010E00E9454
:10405000BA36E00FF11F008100FD64C502E0009355
:10406000A504EFE1F2E00091A40410E0E00FF11FDD
:104070004091A30450E003E010E00E94BA36E00F44
:10408000F11F008101FD4EC503E00093A5044AC560
:104090000091F504023018F004E00093340842C5A2
:1040A0000091F2040130B8F0EFE1F2E00091A404D5
:1040B00010E0E00FF11F4091A30450E003E010E096
:1040C0000E94BA36E00FF11F10810091A5045ED561
:1040D0000093A50427C50091F3040130B8F0EFE187
:1040E000F2E00091A40410E0E00FF11F4091A3045E
:1040F00050E003E010E00E94BA36E00FF11F10819B
:104100000091A5045CD50093A5040CC50091F404AE
:10411000023010F087D506C50091F504023018F082
:1041200005E000933408FEC400913808802F009108
:10413000A204023029F00091A204033009F052C019
:104140000091F204013029F00091F304013009F0EC
:1041500049C00091A9041091AA04482F0E94C836B2
:104160000170002399F50091A30310E0482F4A95B0
:104170000E94CE360170002361F4482F4A9501E079
:1041800010E00E94C2361091A303102B1093A303DA
:104190000CC0482F4A9501E010E00E94C2360095FD
:1041A0001091A30310231093A3030091A2030730DF
:1041B000C8F0482F4A9501E010E00E94C2360095F1
:1041C0001091A30310231093A3030CC0482F4A950A
:1041D00001E010E00E94C23600951091A303102365
:1041E0001093A303E3E3F8E0058504FF16C00091F4
:1041F000F604033008F496C400E000933308E3E3C8
:10420000F8E005850F7D05870AE000933D080FEF74
:1042100047E650E00E94A13685C40091F4040230C4
:1042200028F0B09138083CDBB017C1F00091F404DD
:10423000023008F452C00091A204013009F04DC0D0
:104240000091A304023009F048C00091A404013099
:1042500009F043C00091A5040330F9F50091A204D0
:10426000023021F00091A204033029F4E3E3F8E0E6
:10427000058505FF57C405E0009333080091A103AD
:104280001091C50410231093C50400919F03109151
:10429000A003E2EAF4E02385348520233123238739
:1042A0003487A5D424E230E002EA14E00E94B63359
:1042B0000093C6041093C7040091C6041091C7046C
:1042C00045E650E00E94A5360091C6041091C7044F
:1042D0004EE850E00E94A53625C40091A2040130AA
:1042E00069F40091A304023049F40091A404013060
:1042F00029F40091A504033009F414C40091F204D8
:10430000023008F4AAC0E3E3F8E0058504FDA5C087
:10431000B0913808C5DAB01731F4E3E3F8E0058569
:104320000062058705C0E3E3F8E005850F7D05879A
:104330000091A204023029F00091A204033009F098
:104340007DC0AEDA10913808011708F477C00091EB
:10435000A9041091AA04409138080E94C83601703F
:10436000002309F06BC00091A30310E040913808CE
:104370004A950E94CE360170002339F10091A203C4
:10438000073048F4209138080091A20310E0F801AA
:10439000EE55FB4F248F0091A20303950093A203D7
:1043A0000091A203073088F40091C50410E0409109
:1043B000A2034A950E94CE360170002331F4009189
:1043C000A20303950093A203EBCF20E00091A20388
:1043D0000A95802F873060F40091C50410E0482FC3
:1043E0000E94CE360170002309F023958395F2CF09
:1043F00060E000913808802F893068F40091A904AA
:104400001091AA04482F0E94C8360170002309F0B9
:1044100063958395F1CF08E010E04091380850E0B3
:10442000041B150B70E0061B170B30E00217130777
:104430002CF4E3E3F8E005850061058704E00093D0
:104440003308B09138082CDAB01708F06BC300912C
:10445000380803950093380865C30091F5040230CD
:10446000F0F1E3E3F8E0058504FD5CC3B0913808A2
:1044700000DAB017A1F1E3E3F8E0058505FD05C01A
:10448000009138080A9500933808E3E3F8E00585C1
:104490000F7D05870091A30310E0409138084A95ED
:1044A0000E94CE3601700023D1F00091A2030A953C
:1044B0000093A2030091A203013089F00091C5048A
:1044C00010E04091A2034A950E94CE36017000236D
:1044D00031F40091A2030A950093A203EBCF22C30B
:1044E0000091F404013039F406E00093330800E051
:1044F000009334080AC00091F404023030F006E062
:104500000093330803E00093340800913308063029
:1045100049F40091A9041091AA04012B19F404E1B3
:1045200000933D08A6D90093380800E000933908AD
:10453000F9C200913408005099F00A9509F448C076
:104540000A9509F484C00A9509F4A2C00A9509F4F1
:10455000BEC00A9509F4DAC00A9509F430C1E2C276
:104560000091F204013080F09BD9802F009138082F
:10457000081730F400913808039500933808D2C228
:1045800078D900933808CEC20091F304013080F04E
:1045900070D9802F00913808801730F400913808C6
:1045A0000A9500933808BEC27BD900933808BAC276
:1045B0000091F404013020F001E000933408B2C20D
:1045C0000091F504013018F005E000933308AAC209
:1045D0000091F204013070F000913908073030F496
:1045E000009139080395009339089CC200E00093BC
:1045F000390898C20091F304013070F00091390835
:10460000002331F0009139080A95009339088AC2D5
:1046100007E00093390886C20091F404013038F0B5
:1046200002E00093340804E100933D087BC200914E
:10463000F504023020F005E00093330873C20091C6
:10464000F504013018F000E0009334086BC20091CB
:10465000F504013021F401E00093340863C20091B5
:10466000F504023020F005E0009333085BC20091AE
:10467000F404033060F009E00093330800E0009395
:10468000340801E0009335080EE100933D084AC26A
:104690000091F204013020F40091F304013020F085
:1046A00004E0009334083EC20091F404013038F075
:1046B00005E00093340800E000933A0855C00091EB
:1046C000F504013018F005E0009333082BC2009187
:1046D000F204013020F40091F304013020F003E0F3
:1046E000009334081FC20091F404013038F006E052
:1046F0000093340800E000933B088FC00091F5045C
:10470000013018F005E0009333080CC20091F50465
:10471000013039F406E00093340800E000933B08D0
:104720007CC00091F504023020F005E000933308CE
:104730001BC00091F304013050F000913A0800389A
:1047400030F400913A08039500933A080DC00091A7
:10475000F204013048F000913A08002329F000915A
:104760003A080A9500933A0873D200913A0810E08B
:10477000F801E456FD4F0081902F9F3F89F400918E
:104780003A08002369F000913A080A9500933A0824
:1047900000913A0810E0F801E456FD4F0081902F97
:1047A000092F02950F7010E0F801EE55FB4F0585BB
:1047B00000933808092F0F7000933908B3C1009196
:1047C000F504013039F405E00093340800E000936B
:1047D0003A08CACF0091F504023020F005E00093BA
:1047E00033081BC00091F304013050F000913B08E6
:1047F000003830F400913B08039500933B080DC04E
:104800000091F204013048F000913B08002329F0A8
:1048100000913B080A9500933B0801E00093A00437
:10482000A6D2002321F400E00093A0047BC10091F4
:104830003B0810E0F801E35EFC4F0081902F9F3FA2
:1048400089F400913B08002369F000913B080A9528
:1048500000933B0800913B0810E0F801E35EFC4F39
:104860000081902F092F02950F7010E0F801EE558E
:10487000FB4F058500933808092F0F700093390806
:1048800051C100913408023089F40091F4040330DE
:1048900060F009E00093330800E00093340801E081
:1048A000009335080EE100933D083CC10091F404EB
:1048B000013039F406E00093330800E00093340837
:1048C0000AC00091F404023030F006E0009333088F
:1048D00003E0009334080E94391C802F00913808AF
:1048E000081710F4809338081DC10091F5040130B9
:1048F00038F000E00093350805E00093330812C15A
:1049000000913408002309F00DC10091F204013038
:1049100020F40091F304013088F000913508043050
:1049200021F405E000933508FDC0009135080530FD
:1049300009F0F8C004E000933508F4C00091F604D3
:10494000023008F4EFC000913508043059F40BED43
:1049500015E00E94C81A07EB15E00E94011B0E9497
:10496000111AA6C000913508053059F40BED15E079
:104970000E94C81A0BEA15E00E94011B0E94461A09
:1049800097C000913508015009F452C00A9519F0FA
:104990000A9509F08DC0A6EB0E94621C802F6BEC7B
:1049A00074E0482F50E00CE110E00E94BA3623E991
:1049B000022E20E0122E000E111EFB01A0011CE1B0
:1049C00020E00E94413700E010E02091390830E0FB
:1049D000220F331FF901E553FB4F0087118700E0D9
:1049E0002091390830E0F901E553FB4F00832AE1BB
:1049F00030E00BEC14E00E94B6330093E504109312
:104A0000E604A895A63B91F44CE12BEC34E0642F2E
:104A1000482F50E00CE110E00E94BA36A80103E9EB
:104A200010E0040F151F462F0E94F919A89540C0E9
:104A3000A7EB0E94621C802F6BEC74E0482F50E0C3
:104A40000CE110E00E94BA3623E9022E20E0122E7B
:104A5000000E111EFB01A0011CE120E00E94413765
:104A600000E02091390830E0F901E553FB4F008365
:104A70002AE130E00BEC14E00E94B6330093E50429
:104A80001093E604A895A73B91F44CE12BEC34E09D
:104A9000642F482F50E00CE110E00E94BA36A801C4
:104AA00003E910E0040F151F462F0E94F919A8957D
:104AB00001E00093340804E100933D0833C0009105
:104AC000F504023020F005E0009333082BC000917C
:104AD0003408002399F40091F204013020F400918D
:104AE000F304013020F001E00093340807C0009186
:104AF000F504013018F005E0009333080091F40448
:104B0000023080F000913408083030F4009134080D
:104B100003950093340806C000E00093340805E0D4
:104B20000093330800E00093F10400E00093F204E6
:104B300000E00093F30400E00093F40400E000932D
:104B4000F50400E00093F604E4E00C94573700917C
:104B5000A304033021F402E00093A304089501E0CC
:104B60000093A30408950091A304015019F00A953D
:104B700029F0089502E00093A30408950091A2048F
:104B8000002319F003E00093A3040895202F022FBF
:104B9000005029F00A9519F00A9549F00CC011FB54
:104BA00016F402E0089512FB46F403E0089512FBA8
:104BB00026F403E00895022F0895022F0895202F70
:104BC000022F005021F0025051F00A9561F411FBC0
:104BD00016F402E0089510FB46F401E0089510FB7E
:104BE00026F401E00895022F0895022F089500E0B1
:104BF0000093C80400E010E00093C6041093C704BB
:104C0000A89549E222EA34E001E410E00E94F91993
:104C1000A89549E222EA34E00AE610E00E94F91978
:104C2000A895089507E00093340800E00093350844
:104C300000E000939E0308E200933E0808E2009320
:104C40003F0800E00093360800E00093370808951D
:104C50009A938A93EF97EF97229720E080E0203194
:104C600068F50091A9041091AA04422F0E94C83649
:104C70000170002309F160E06830F0F4422F50E049
:104C80000CE110E00E94BA3643E950E0400F511F9A
:104C9000062F10E0400F511F0E949036002351F064
:104CA000022F0295007F060FFE0190E0E80FF91F2A
:104CB000008383956395E0CF2395D1CF382E20E0F4
:104CC000231508F047C030E0222E60E0631568F538
:104CD000FE01062F10E0E00FF11F00810F3F19F1D8
:104CE000FE01062F10E0E00FF11F408142954F704A
:104CF00050E00CE110E00E94BA3643E950E0400F6A
:104D0000511FFE01062F10E0E00FF11F008110E09F
:104D10000F701070400F511F0E949036702F371780
:104D200010F4372F262E6395D1CFFE01022D10E00F
:104D3000E00FF11F4081022F10E0F801E456FD4F13
:104D400040834FEFFE01022D10E0E00FF11F408382
:104D50002395B6CF4FEF022F10E0F801E456FD4F38
:104D60004083EF96EF9622968991999108950E943B
:104D70004A37EF97EF97229730E020E080E020312C
:104D800088F50091A9041091AA04422F0E94C83608
:104D90000170002329F160E0683010F5EBE9F0E0E4
:104DA000062F10E0000F111FE00FF11F422F50E0FF
:104DB0000CE110E00E94BA36E00FF11FAF010E9433
:104DC0009336012B59F0022F0295007F060FFE014A
:104DD00090E0E80FF91F0083839531E06395DCCF05
:104DE0002395CDCF782F20E0271708F04BC0222441
:104DF0003324A22F60E0671790F5FE01062F10E024
:104E0000E00FF11F00810F3F41F10BE910E0FE01BF
:104E1000462F50E0E40FF51F408150E04F70507076
:104E2000440F551F040F151F3801FE01062F10E017
:104E3000E00FF11F408142954F7050E00CE110E00F
:104E40000E94BA36600E711EA3010E94933628019B
:104E50002414350410F41201A62F6395CCCFFE0163
:104E6000B0E0EA0FFB1F4081022F10E0F801E35E83
:104E7000FC4F40830FEFFE01B0E0EA0FFB1F008301
:104E80002395B2CF4FEF022F10E0F801E35EFC4F05
:104E90004083032FEF96EF962296E8E00C94533769
:104EA00020E0263008F04BC009B310E0422F0E94EA
:104EB000CE360170002379F030E0F901E05EFB4F5F
:104EC00000810F3FB0F430E0F901E05EFB4F00815C
:104ED000039500830EC030E0F901E05EFB4F0081D6
:104EE000013038F030E0F901E05EFB4F00810A95B7
:104EF000008330E0F901E05EFB4F00810A3158F099
:104F0000422F01E010E00E94C2361091A803102B3E
:104F10001093A80312C030E0F901E05EFB4F00815E
:104F2000002359F4422F01E010E00E94C2360095A0
:104F30001091A80310231093A8032395B2CF0895CE
:104F40000E944E37A0910B05B5E96BEC74E04A2F37
:104F500050E00CE110E00E94BA3623E9022E20E076
:104F6000122E000E111EFB01A0011CE120E00E9488
:104F7000413700910505109106050093E304009167
:104F8000090510910A050093E4044A2F009198073F
:104F9000109199070E94C8360170002321F00091FA
:104FA000E4040093E40480E0883008F079C00091C4
:104FB00003051091040522E0829F402D0E94C8360F
:104FC000902F9370992309F448C0292F30E0082FBF
:104FD00010E0000F111FF801E553FB4F008511850C
:104FE000020F131F00871187082F10E0000F111FF9
:104FF000F801E553FB4F00851185083E23E01207B9
:1050000058F007EE13E0282F30E0220F331FF9018C
:10501000E553FB4F00871187482F01E010E00E9405
:10502000C236202F0A2F10E0F801E95DFB4F008106
:10503000022B0083482F01E010E00E94C236202F8F
:105040000A2F10E0F801E95CFB4F0081022B00837E
:10505000ECE9F4E00081016000830BEF14E0012B28
:10506000E9F0082F10E0F801E550FB4F2081082FF0
:1050700010E0F801E553FB4F0081020F0083082F79
:1050800010E0F801E553FB4F0081043638F023E6C9
:10509000082F10E0F801E553FB4F2083839584CF60
:1050A0002AE130E00BEC14E00E94B6330093E504F3
:1050B0001093E604A895B53991F44CE12BEC34E05B
:1050C000642F4A2F50E00CE110E00E94BA36A8018C
:1050D00003E910E0040F151F462F0E94F919A89547
:1050E000E4E00C9457379A938A9300919B04002331
:1050F00009F068C00091F8031091F9032091A90408
:105100003091AA04022313230093730410937404B0
:105110000091FA031091FB032091A9043091AA0495
:105120000223132300937504109376040091FC036B
:105130001091C50401230093770400910E0410918F
:105140000F042091A9043091AA0402231323009391
:1051500088041093890480E0803198F50091A904B7
:105160001091AA04482F0E94C83601700023D9F07C
:1051700090E0FC01E95CFB4F008190E0FC01E65708
:10518000FB4F008300E090E0FC01E95CFB4F0083F3
:1051900090E0FC01E350FC4F008190E0FC01E858F6
:1051A000FB4F00830CC000E090E0FC01E657FB4F92
:1051B000008300E090E0FC01E858FB4F00838395FA
:1051C000CBCF03D089919991089500E000939B047F
:1051D0000091730410917404012B31F40091750453
:1051E00010917604012B29F0EBE9F4E000810061D5
:1051F000008300917704002329F0EBE9F4E00081BB
:10520000086000830091880410918904012B29F023
:10521000EBE9F4E000810260008320E0203120F51A
:105220000091A9041091AA04422F0E94C83601706F
:105230000023C1F030E0F901E657FB4F0081002365
:1052400029F0EBE9F4E000810160008330E0F9012E
:10525000E858FB4F0081002329F0EBE9F4E00081DE
:10526000046000832395DACF08950E944A372C9773
:105270004090A9045090AA0480E0843008F045C012
:105280002FEFFE01082F10E0E00FF11F20832FEF1A
:10529000FE013496082F10E0E00FF11F20832FEF5E
:1052A000FE013896082F10E0E00FF11F208320E068
:1052B000082F10E0000F111F000F111FF801E6501A
:1052C000F84F238320E0082F10E0000F111F000F7C
:1052D000111FF801E650F84F248320E0082F10E05A
:1052E000000F111F000F111FF801E650F84F258322
:1052F00020E0082F10E0000F111F000F111FF80110
:10530000E650F84F26838395B8CF80E0A0E0883040
:10531000D0F5A430C0F5482F82010E94C836017034
:10532000002379F1482F00917304109174040E94B6
:10533000C8360170002351F4009175041091760471
:10534000482F0E94C83601700023D9F0FE01349620
:10535000B0E0EA0FFB1F8083082F10E0F801EE5544
:10536000FB4F0585FE01B0E0EA0FFB1F0083A3950C
:10537000482F01E010E00E94C236009510954022AF
:1053800051228395C4CF80E08630B0F5A430A0F5DB
:105390000091C50410E0482F0E94CE360170002312
:1053A00049F10091770410E0482F0E94CE36017039
:1053B000002351F40091770410E0482F43950E9498
:1053C000CE3601700023B1F042E0082F0E94AC36C7
:1053D000FE013896B0E0EA0FFB1F0083082F10E0B3
:1053E000F801EE55FB4F058DFE01B0E0EA0FFB1F03
:1053F0000083A3958E5FC8CF80E0803170F5A43024
:1054000060F5482F82010E94C8360170002319F10F
:10541000082F10E0F801E858FB4F00810023D9F075
:10542000FE013496B0E0EA0FFB1F8083082F10E0E6
:10543000F801EE55FB4F0585FE01B0E0EA0FFB1FBA
:105440000083A395482F01E010E00E94C23600952A
:105450001095402251228395D0CF80E0803170F5A5
:10546000A43060F5482F82010E94C83601700023E5
:1054700019F1082F10E0F801E657FB4F00810023D7
:10548000D9F0FE013496B0E0EA0FFB1F8083082FAD
:1054900010E0F801EE55FB4F0585FE01B0E0EA0F84
:1054A000FB1F0083A395482F01E010E00E94C23645
:1054B00000951095402251228395D0CF80E0803115
:1054C00038F5A43028F5482F82010E94C8360170B3
:1054D0000023E1F0482F00918804109189040E9474
:1054E000C8360170002391F0FE013496B0E0EA0F57
:1054F000FB1F8083082F10E0F801EE55FB4F058558
:10550000FE01B0E0EA0FFB1F0083A3958395D7CF80
:1055100080E0A81708F44CC1FE013496082F10E073
:10552000E00FF11F0081602E0FEF601609F4B5C087
:10553000FE01082F10E0E00FF11F2081082F10E07E
:10554000000F111F000F111FF801E650F84F2383C1
:105550007724F301E657FB4F2081082F10E0000F5E
:10556000111F000F111FF801E650F84F248300E0CF
:105570007724F301E657FB4F00837724F301E858C3
:10558000FB4F2081082F10E0000F111F000F111F8B
:10559000F801E650F84F258300E07724F301E8583E
:1055A000FB4F0083FE013496082F10E0E00FF11F3F
:1055B0000081083008F04AC0462D00917304109114
:1055C00074040E94C8360170002361F0082F10E0B7
:1055D000000F111F000F111FF801E650F84F068150
:1055E000016006830091750410917604462D0E9497
:1055F000C8360170002361F0082F10E0000F111F62
:10560000000F111FF801E650F84F06810260068373
:10561000462D01E010E00E94C23600951095E3E7A8
:10562000F4E0208131812023312320833183462DF2
:1056300001E010E00E94C23600951095E3E7F4E027
:10564000228133812023312322833383462D00910D
:105650008804109189040E94C8360170002309F45F
:10566000A5C0082F10E0000F111F000F111FF80137
:10567000E650F84F068100680683462D01E010E0F1
:105680000E94C23600951095E8E8F4E0208131814F
:10569000202331232083318389C0FE013896082FCF
:1056A00010E0E00FF11F00810F3F09F47FC0FE0101
:1056B000082F10E0E00FF11F2081082F10E0000FED
:1056C000111F000F111FF801E650F84F238320E04F
:1056D000082F10E0000F111F000F111FF801E650F6
:1056E000F84F248320E0082F10E0000F111F000F57
:1056F000111FF801E650F84F2583FE013896082F58
:1057000010E0E00FF11F0081005029F00A95C9F068
:105710000A9579F146C0009177040370902F992380
:1057200079F0082F10E0000F111F000F111FF80172
:10573000E650F84F9683009177040C7F009377042E
:1057400035C00091770406950695902F93709923A4
:1057500069F1082F10E0000F111F000F111FF80151
:10576000E650F84F968300917704037F0093770407
:105770001DC00091770402950F70902F93709923AC
:10578000A9F0082F10E0000F111F000F111FF801E2
:10579000E650F84F9683009177040F7C00937704CE
:1057A00005C0009177040F73009377048395B1CE01
:1057B00000919D040B3B31F400E000939D040FEF3A
:1057C0000093090802DD2C96E8E00C945337202F53
:1057D000212B19F001501040FACF08950091F503E4
:1057E0001091F603012B49F0E5EFF3E00081118100
:1057F00001501040008311830895009133080A304E
:10580000A1F400913408053081F40091E70410916F
:10581000E804012B31F40091E9041091EA04012B12
:1058200011F0909A0895909808950091F7030B3025
:1058300059F400E00093F70304E110E00093F5034E
:105840001093F603909A08950091F8031091F903CC
:10585000012BA1F40091FA031091FB03012B71F4C9
:105860000091FC03002351F400910E0410910F04E9
:10587000012B21F400919F04002311F0909801C0A6
:10588000909AECE9F4E0008100FF0CC0ECE9F4E050
:1058900000810E7F008308E017E00093F50310936A
:1058A000F6039098089506E000939500E5EDF6E084
:1058B000059114913197012F10E000939000E5EDD0
:1058C000F6E005911491319709B908ED0AB906E09F
:1058D00000939D00E5EDF6E0059114913197012FBD
:1058E00010E000939800E5EDF6E0059114913197F2
:1058F0000093990008ED00939A0008950E944C3798
:1059000080E0803140F400E090E0FC01EE55FB4F78
:1059100005878395F6CF0091A2040130E9F481E078
:105920000091A304081708F455C090E0FC01EE555F
:10593000FB4F8587082F10E0000F111FF801EE556F
:10594000FB4F838F082F10E0000F111FF801EE5559
:10595000FB4F848F8395E4CF0091A204023021F0A5
:105960000091A204033051F481E0893098F590E071
:10597000FC01EE55FB4F85878395F7CF80E084309F
:1059800048F5E9EFF6E090E0E80FF91F0091A30475
:1059900010E0000F111F000F111FE00FF11F049105
:1059A000402E5524F201EE55FB4F4586833080F49E
:1059B000082F10E0000F111FF801EE55FB4F458E28
:1059C000082F10E0000F111FF801EE55FB4F468E17
:1059D0008395D5CF00E010E00093A9041093AA04AA
:1059E000549880E0823008F0E3C003E0009385071C
:1059F00000E000938607EBEFF6E004910093870741
:105A000000E00093880701E00093890700E000931D
:105A1000940700919407003108F0C8C00091A904D0
:105A20001091AA04409194070E94C8360170002387
:105A300009F0B6C00091940710E0F801EE55FB4F55
:105A40000585002309F4ACC00091940700938407F6
:105A500026E030E004E817E089D6D8010A2F009349
:105A60008A078D01012F10E000938B0708E0009357
:105A7000500728E004E517E06CD601E000934F07DB
:105A8000E1EFF6E00491E9EFF6E01491019F000CDC
:105A9000111C000C111C1BBC0ABC0DE00EBD00E06B
:105AA00010E01DBD0CBDE7EFF4E00081086000834D
:105AB000E7EFF4E000810F7D0083E7EFF4E0008181
:105AC0000F7B008300E002BF0FE003BFE7EEF6E0CC
:105AD000149102E0109F01BE0091F7041091F804A8
