:100000000C946D33189518951895189518951895A2
:100010001895189518951895189518951895189578
:10002000189518950C945A33189518951895189595
:100030000C940E3118951895189518950C94DF307E
:1000400018951895189518950C94223118951895AF
:100050000C9467311895189518951895189518955A
:1000600018951895189518950C949231189518951F
:1000700018951895189518950C94C13118951895E0
:100080000C946E3218951895189518955F5F5FCC93
:10009000D02DCE0000000000C2E5F0F1E8FF5F3097
:1000A000312E313041E4F0E5F15F3078000000009E
:1000B000D1EAEEF02E5F393630300000CEE6E8E4CB
:1000C000E0EDE8E500000000EAEEEDF4E8E3F3F02F
:1000D000E0F6E8E8CEF8E8E1EAE05FEAEEEDF42EDB
:1000E000C2C7D32DDDD6D12DC50000C2C7D32DDDAB
:1000F000D6D12D4D0000C2C7D32DDDD6D12D0000A5
:1001000000D1F2EEF0EEEDE05F00000000CAEEEB91
:10011000E8F72E5FF0FFE4EEE2D8E8F0E8EDE05F0C
:100120000000000036333000000000000000003600
:1001300036300000000000000000393030000000C0
:100140000000000000CDE5F200000000000000000B
:100150004E41312D4E41360000004E41372D4E416B
:10016000313200004E41312D4E4139000000EDE5A5
:10017000F200000000000000EDE5F20000000000C9
:100180000000EDE5F2000000000000004E41312DBE
:100190004E41360000004E41372D4E4131320000B5
:1001A000EDE5F200000000000000EDE5F2000000C7
:1001B000000000004E41312D4E41340000004E4100
:1001C000352D4E4138000000EDE5F2000000000042
:1001D0000000EDE5F200000000000000EDE5F20097
:1001E000000000000000EDE5F2000000000000004B
:1001F000EDE5F200000000000000EDE5F200000077
:10020000000000004E41312D4E41380000004E41AB
:10021000392D4E4131360000EDE5F20000000000BE
:100220000000EDE5F2000000000000004E41312D1D
:100230004E4136000000EDE5F20000000000000035
:10024000EDE5F200000000000000EDE5F200000026
:1002500000000000EDE5F200000000000000EDE508
:10026000F200000000000000EDE5F20000000000D8
:100270000000EDE5F200000000000000EDE5F200F6
:10028000000000000000EDE5F200000000000000AA
:10029000EDE5F200000000000000EDE5F2000000D6
:1002A000000000004E41312D4E4131380000EDE597
:1002B000F2000000000000004E41312D4E4131306F
:1002C00000004E4131312D4E413230004E41312D32
:1002D0004E4131320000EDE5F20000000000000068
:1002E0004E41312D4E41340000004E41352D4E41DE
:1002F000380000004E41312D4E41313000004E415A
:1003000031312D4E41323000EDE5F20000000000A9
:100310000000EDE5F2000000000000004E41312D2C
:100320004E41340000004E41352D4E413800000052
:10033000EDE5F200000000000000EDE5F200000035
:1003400000000000EDE5F200000000000000EDE517
:10035000F200000000000000EDE5F20000000000E7
:100360000000EDE5F200000000000000D6E5EFFC23
:100370005F0000000000005FCBD60000000000001E
:1003800000005FCBD6D1000000000000005FD0D697
:1003900000000000000000005FCBD62FCBD6D100BC
:1003A000000000CFEEE8F1EA5FCCD02DCA0000CD0E
:1003B000E0E9E4E5EDFB5FCCD02DCA2DEDE5F200E0
:1003C000000000000000005F2E2E2E2E2E000000E8
:1003D000000000D1E5EAF6E8FF5F0000000000E859
:1003E000EBE85FEDE5F25FF1E5EAF6D0D65FCCD061
:1003F0002DCA0000000000CCEEE4F3EBFC5FC0006F
:10040000000000D1C5CA2E0000000000000000CC92
:10041000CEC42E4100000000000000D0DFC4000068
:1004200000000000000000CDE5F25FCCD02DCA3402
:10043000000000CCD02DCA00000000000000005FCA
:100440002DEDE5F2000000000000005F2DE5F1F267
:10045000FC000000000000CDE5F25FF1E5EAF6E8FF
:10046000E85F00CDE5F25FF0FFE4E05F320000C23C
:10047000FBF0E0E12DEAE05F000000D1F0E0E1E018
:10048000F22E5F00000000CAEEEB2DE2EE5FF1F00D
:10049000E0E12ED1F0E0E1E0F2FBE2E0EDE8E9EDB1
:1004A000E5F2000000000000000000D1D0C0C1CE85
:1004B000D2C0CB00000000CCEEE4F3EBFC5F000008
:1004C000000000CDE5F25FEAEEEDF2F0EEEBFFCEDC
:1004D000F2EAE0E75FECEEE4F3EBFFCAEEEB2DE2CD
:1004E000EE5FF1F0E0E12ECDE5F25FF1E2FFE7E84B
:1004F0005FF100CAEEEDF2F0EEEBFC5FEDE500EF30
:10050000F0EEE8E7E2EEE4E8F2F1FFCCD02DCA5FCE
:10051000F1E5EAF62E0000CCCEC4D3CBC83A0000F9
:1005200000000000C2DBD0C0C1CED2CAC0000000B3
:10053000D0C5D1D3D0D1C02100000000C7E0ECE588
:10054000EDE8F2E500000000ECEEE4F3EBFC000067
:1005500000000000CEC1CDD3CBC8D2DC3F000000EC
:10056000CEE1EDF3EBE5EDE05FE2FBF0D1D2C5D0FB
:10057000C5D2DC3F00000000C2C5D1DC5FC5C5CFDD
:10058000D0CECC00D1D0C0C1C0D2DBC22E00000082
:10059000C4E0EDEDFBE5000000000000CEE1EDF36E
:1005A000EBE5EDFB00000000D1F2E8F0E0EDE8E55E
:1005B0002E2E2E00CEE1EDF3EB5FE2FBF0E0E13F0B
:1005C000CFD0CEC2C5D0C8D2DC3F0000436865633F
:1005D0006B5F6F66000000005F5F5F646973706C43
:1005E00061790000C1E1C3E3C4E4C6E6C7E7C8E837
:1005F000CBEBCFEFD3F3D4F4D6F6D7F7605F605FE1
:10060000605F605F605F605F5F605F605F605F60F2
:100610005F605F60D2E5F1F25FEAEDEEEFEEEA00D7
:10062000D2E5F1F25FE2F5EEE4EEE200D2E5F1F2BE
:100630005FE0E4F0E5F1E000D2E5F1F25FF0E5EB38
:10064000E5000000D0E5EBE55FC4CA5FE2EAEB003D
:10065000D0E5EBE55FC4CA5FE2FBEAEBD2E5F1F27D
:100660005F52535FCCD0CE00D2E5F1F25F52535FC0
:10067000CCD0CA00CFF0E8EDFFF2EE5F0000000042
:100680005F5F5FD2C5D1D200000000005FCECACE4E
:10069000CDD7C5CD00000000BF005F002F001F00B8
:1006A00017000F000B00070003007F012D170B0838
:1006B00006040302015A3C1E0F0A080504030178D0
:1006C0001022002001020304050607080000C100F3
:1006D000810040000100C000800041000100C00016
:1006E000800041000000C100810040000100C00006
:1006F000800041000000C100810040000000C100F6
:10070000810040000100C000800041000100C000E5
:10071000800041000000C100810040000000C100D5
:10072000810040000100C000800041000000C100C5
:10073000810040000100C000800041000100C000B5
:10074000800041000000C100810040000100C000A5
:10075000800041000000C100810040000000C10095
:10076000810040000100C000800041000000C10085
:10077000810040000100C000800041000100C00075
:10078000800041000000C100810040000000C10065
:10079000810040000100C000800041000100C00055
:1007A000800041000000C100810040000100C00045
:1007B000800041000000C100810040000000C10035
:1007C000810040000100C000800041000100C00025
:1007D000800041000000C100810040000000C10015
:1007E000810040000100C000800041000000C10005
:1007F000810040000100C000800041000100C000F5
:10080000800041000000C100810040000000C100E4
:10081000810040000100C000800041000100C000D4
:10082000800041000000C100810040000100C000C4
:10083000800041000000C100810040000000C100B4
:10084000810040000100C000800041000000C100A4
:10085000810040000100C000800041000100C00094
:10086000800041000000C100810040000100C00084
:10087000800041000000C100810040000000C10074
:10088000810040000100C000800041000100C00064
:10089000800041000000C100810040000000C10054
:1008A000810040000100C000800041000000C10044
:1008B000810040000100C000800041000100C00034
:1008C000800041000000C100810040000000C00025
:1008D000C1000100C30003000200C200C600060000
:1008E0000700C7000500C500C4000400CC000C00D0
:1008F0000D00CD000F00CF00CE000E000A00CA0090
:10090000CB000B00C90009000800C800D80018007F
:100910001900D9001B00DB00DA001A001E00DE00FF
:10092000DF001F00DD001D001C00DC001400D400EF
:10093000D5001500D70017001600D600D20012000F
:100940001300D3001100D100D0001000F0003000DF
:100950003100F1003300F300F20032003600F600FF
:10096000F7003700F50035003400F4003C00FC00CF
:10097000FD003D00FF003F003E00FE00FA003A008F
:100980003B00FB003900F900F80038002800E800BF
:10099000E9002900EB002B002A00EA00EE002E00FF
:1009A0002F00EF002D00ED00EC002C00E4002400EF
:1009B0002500E5002700E700E60026002200E2000F
:1009C000E3002300E10021002000E000A00060001F
:1009D0006100A1006300A300A20062006600A600FF
:1009E000A7006700A50065006400A4006C00AC00CF
:1009F000AD006D00AF006F006E00AE00AA006A008F
:100A00006B00AB006900A900A80068007800B8007E
:100A1000B9007900BB007B007A00BA00BE007E00FE
:100A20007F00BF007D00BD00BC007C00B4007400EE
:100A30007500B5007700B700B60076007200B2000E
:100A4000B3007300B10071007000B000500090005E
:100A500091005100930053005200920096005600FE
:100A60005700970055009500940054009C005C00CE
:100A70005D009D005F009F009E005E005A009A008E
:100A80009B005B00990059005800980088004800BE
:100A9000490089004B008B008A004A004E008E00FE
:100AA0008F004F008D004D004C008C0044008400EE
:100AB000850045008700470046008600820042000E
:100AC000430083004100810080004000000040118D
:100AD0000B00BA07C907D7070808DC08490C4F0CF8
:100AE000C90DFB0D3C0FBC0F0100C40F0800CE0F59
:100AF0000A1046106B109410AE10F2102E11A800C0
:100B0000FF1B5800871BFF1BFF1BFF1BFF1BFF1B4F
:100B1000FF1BFF1BFF1BFF1BFF1BFF1BFF1BFF1B05
:100B2000FF1BFF1BC91BFF1BFF1BFF1BFF1BFF1B2B
:100B3000FF1BFF1B7B1B7D1B7F1B811B831B851BDF
:100B4000891B8B1B8D1B8F1B911B931B951B971B4D
:100B5000991B9B1B9D1B9F1BA11BA31BA51BA71BBD
:100B6000A91BAB1BAD1BAF1BB11BB31BB51BB71B2D
:100B7000B91BBB1BBD1BBF1BC11BC31BC51BC71B9D
:100B8000CB1BCD1BCF1BD11BD31BD51BD71BD91BFD
:100B9000DB1BDD1BDF1BE11BE31BE51BE71BE91B6D
:100BA000EB1BED1BEF1BF11BF31BF51BF71BF91BDD
:100BB000FB1BFD1B00009D220B00611D9D22851D5E
:100BC000A01DDC1E7E1FA71F9D224F2182216A22AD
:100BD00001004D320C00083212321B321E321B3221
:100BE00021321B321B32243224322D3230320FE1BB
:100BF00007BB00E304BB0FE005BB09E201BB06E055
:100C000002B908EF03B901E000936500089508EE0A
:100C100013E01BBD0ABD0DE00EBD0DE000938A0080
:100C200000E21CE1109387000093860000E100932E
:100C30007D0000E903BD0DE005BD02E907BF089591
:100C40000E94473480E000EA002E04E0102E61E4A8
:100C500070E0F001AB0119E220E00E943A3426E294
:100C600030E000EA14E00E94AF30012B11F0806107
:100C700001E000EA002E04E0102E6AE670E0F001C8
:100C8000AB0119E220E00E943A3426E230E000EAAB
:100C900014E00E94AF30012B81F0806201E084FB00
:100CA00066F400EA002E04E0102E61E470E0F0012A
:100CB000AB0119E220E00E943A3447E650E00E947E
:100CC00089330F3F31F040E950E00E9489330F3FF4
:100CD00019F40E94B41880E38093C604A0E0B0E049
:100CE00080E0803128F569EC74E0482F50E00CE199
:100CF00010E00E94B33323E9022E20E0122E000EF2
:100D0000111EFB01A0011CE120E00E943A342CE1FD
:100D100030E009EC14E00E94AF30012B39F0482F8D
:100D200001E010E00E94BB33A02BB12B8395D9CFFB
:100D3000A093C704B093C804E4E00C9450349A9391
:100D40008A9380E090E0AD98C49A07B3007F07BB18
:100D5000803107E29007D0F4AD9A04E010E00E94E1
:100D6000F228B39902C080EF9FEFAD9805E010E044
:100D70000E94F228AD9A05E010E00E94F228AD989A
:100D800004E010E00E94F2280196E2CF8991999147
:100D90000895C49A07B30F6007BBAC98AD9A00E101
:100DA00017E20E94F228AD98AD9A00E117E20E9486
:100DB000F228AD98AC9800E00E94FE1A00E00E9474
:100DC000FE1A00E00E94FE1A00E00E94FE1A00E0F7
:100DD0000E94FE1AB4DF02E00E94FE1A02E00E94A6
:100DE000FE1A0AE00E94FE1AAADF20E010E000E0EE
:100DF0000E94D21AA4DF0E94F01AA1DF00E00E9434
:100E0000FE1A06E00E94FE1A08950091300805308F
:100E100008F04CC000913008005049F00A9571F07C
:100E20000A9571F00A9571F00A95A9F13AC0C49A31
:100E300007B30F6007BBAC98AD9A33C0AD9831C013
:100E4000AD9A2FC0AD98C49807B30F6007BBAC989C
:100E500000E00E94FE1A00E00E94FE1A00E00E94DC
:100E6000FE1A00E00E94FE1A00E00E94FE1A67DFF0
:100E700002E00E94FE1A02E00E94FE1A0AE00E94AE
:100E8000FE1A5DDF20E010E000E00E94D21A57DF7A
:100E90000E94F01A06C000E00E94FE1A06E00E94BE
:100EA000FE1A0091300803950093300808950E94BF
:100EB000453400913108053029F020E010E001E0D0
:100EC0000E94D21A00913B08002369F0989B0BC046
:100ED000999B09C09A9B07C09B9B05C000913B084A
:100EE0000A9500933B08009131080530F8F00E9404
:100EF000031300939D040E94411300913B080023BB
:100F0000A9F4E1E3F8E0058503FF10C00E94701723
:100F10000E94D2140E945F140E947E160E94A315A4
:100F20000E941F150E94F0150E94031780E0803375
:100F300070F400E290E0FC01E05DFD4F008300E210
:100F400090E0FC01E05AFD4F00838395F0CF80E0F4
:100F50008C3040F400E290E0FC01E057FD4F00834C
:100F60008395F6CF00913108ECECF0E0FBBFFAE09E
:100F70000C94EA330E94431100913B08002339F49A
:100F800004E100933B0801E00093310859DE0C9422
:100F900040110E944F1100913B08002331F402E3FD
:100FA00000933B0802E0009331080C9440110CEBD5
:100FB00010E00E946B1908EC10E00E94A41900E0F8
:100FC0000093980401E00093A10401E00093A204BF
:100FD00001E00093A30401E00093A40401E0009366
:100FE000A50401E00093A6040091C604002311F0BB
:100FF0000C94401100913B08002341F405E000935C
:10100000310820E010E000E00E94D21A0C94401158
:10101000E1E3F8E005850E7F0587E1E3F8E005856B
:101020000F7E058700913208002391F4E1E3F8E098
:10103000058501FD05C006EF10E00E946B1904C094
:1010400000EE10E00E946B1901E00E945612B2C03F
:1010500000913208013091F4E1E3F8E0058501FDEB
:1010600005C006EF10E00E946B1904C00BEE10E003
:101070000E946B1901E00E9456129CC00091320838
:10108000023041F50091A004002391F400EE10E03D
:101090000E946B19E1E3F8E0058501FD04C00091B1
:1010A000A1040E945E1A01E011E00E94A41982C00E
:1010B000E1E3F8E0058501FD04C00091A1040E9470
:1010C0005E1A0BEE10E00E946B190DE011E00E9419
:1010D000A41970C000913208033059F50091A104A1
:1010E0000E945E1A0BEE10E00E946B1920E632E0BF
:1010F00009E111E00E943F19802FE1E3F8E0058546
:1011000001FD13C090E020E632E0280F391F409126
:10111000A20450E00BE010E00E94B333A80109E103
:1011200011E0040F151F0E943F1901E00E945612A2
:1011300041C000913208043059F50091A1040E9489
:101140005E1A0BEE10E00E946B1920E632E00CE60E
:1011500013E00E943F19802FE1E3F8E0058501FDCF
:1011600013C090E020E632E0280F391F4091A3041D
:1011700050E00BE010E00E94B333A8010CE613E04E
:10118000040F151F0E943F1901E00E94561212C061
:1011900000913208053019F40E947B110BC00CEB52
:1011A00010E00E946B1908EC10E00E94A4190EE1F7
:1011B00000933B080C94401100913608A02FE1E306
:1011C000F8E0058500FD8CC0E1E3F8E005850160ED
:1011D00005870FE30093C3040FEF1FEF0093A904EB
:1011E0001093AA040FEF1FEF0093AB041093AC040D
:1011F0000091A0040130D1F50091A104013021F447
:1012000003E00093C30407C00091A104023019F465
:101210000FE00093C3040091A104013089F4009110
:10122000A304023069F40091A204013021F000917E
:10123000A204033029F4E0EAF4E003A10D7F03A344
:101240000091A304033091F40091A204023071F4E0
:101250000091A104013021F00091A104033031F488
:1012600000E010E00093AB041093AC040E94971AC6
:10127000B02F20E0233040F50091A7041091A8047E
:101280004B2F420F0E94C13301700023D9F002E0BE
:10129000209F402D01E010E00E94BB33009510918B
:1012A000C30410231093C30402E0209F402D4395F4
:1012B00001E010E00E94BB3300951091C30410239D
:1012C0001093C3042395D6CF0091C3040093A103C8
:1012D0000091AB041091AC0400939F031093A00302
:1012E00020E332E003ED13E00E943F19802FE1E399
:1012F000F8E0058501FD08C090E020E332E0280F0A
:10130000391F0A2F0E94051A83950091A00401300D
:10131000B9F490E020E332E0280F391F4091A30494
:1013200050E00BE010E00E94B333A8010CE613E09C
:10133000040F151F0E943F1900E00E94561225C09D
:101340000091A7041091A804409136080E94C1336F
:101350000170002371F490E020E332E0280F391F80
:1013600008E913E00E943F1913E000E00E946912AF
:101370000CC090E020E332E0280F391F0DE813E0A5
:101380000E943F1900E00E9456120091A004013013
:1013900009F084C10091A304013009F0ADC00091AF
:1013A000A7041091A8044A2F0E94C13301700023A2
:1013B00009F09CC009B310E03A2F3A9522E0329F21
:1013C000402D0E94C7330170002331F0E1E3F8E0C3
:1013D0000585006105874FC209B310E022E0A29F96
:1013E000402D4A950E94C7330170002309F464C060
:1013F00002E0A09F402D4A9501E010E00E94BB331F
:1014000000951091A10310231093A10320E632E070
:1014100005E411E00E943F19802F1091A10406E01D
:10142000109F902D95500091A2040130A1F4082F37
:1014300010E020E632E0200F311F492F50E00AE093
:1014400010E00E94B333A80100E511E0040F151F5E
:101450000E943F192BC00091A2040230A1F4082F72
:1014600010E020E632E0200F311F492F50E00AE063
:1014700010E00E94B333A80104E012E0040F151F2E
:101480000E943F1913C0082F10E020E632E0200F21
:10149000311F492F50E00AE010E00E94B333A80149
:1014A00008EB12E0040F151F0E943F1920E632E0FE
:1014B0000A2F0E945419DFC109B310E022E0A29F55
:1014C000402D4A950E94C7330170002309F0D3C113
:1014D00002E0A09F402D4A9501E010E00E94BB333E
:1014E0001091A103102B1093A103C5C1E1E3F8E013
:1014F000058500610587BFC10091A304023019F57D
:101500000091A7041091A8044A2F0E94C1330170D2
:10151000002399F409B310E03A2F3A9522E0329F64
:10152000402D0E94C7330170002309F4A4C1E1E3F8
:10153000F8E00585006105879EC1E1E3F8E00585D7
:101540000061058798C10E946B180091A704109153
:10155000A8044A2F0E94C1330170002331F4E1E353
:10156000F8E005850061058786C14A2F0091A20336
:101570001091A3030E94C1330170002331F0E1E315
:10158000F8E005850061058776C10091A4031091FC
:10159000A5034A2F0E94C1330170002309F465C0DE
:1015A0004A2F01E010E00E94BB3300951095EFE94F
:1015B000F3E020813181202331232083318320E611
:1015C00032E005E411E00E943F19802F1091A10440
:1015D00006E0109F902D9A950091A2040130A1F48D
:1015E000082F10E020E632E0200F311F492F50E095
:1015F0000AE010E00E94B333A80100E511E0040FF7
:10160000151F0E943F192BC00091A2040230A1F4C3
:10161000082F10E020E632E0200F311F492F50E064
:101620000AE010E00E94B333A80104E012E0040FC6
:10163000151F0E943F1913C0082F10E020E632E06A
:10164000200F311F492F50E00AE010E00E94B33311
:10165000A80108EB12E0040F151F0E943F1920E6B5
:1016600032E00A2F0E94541906C10091A403109180
:10167000A5034A2F0E94C1330170002309F0FBC06B
:101680004A2F01E010E00E94BB33EFE9F3E0208134
:101690003181202B312B20833183EDC0A53020F008
:1016A0000A2F0550B02F03C00A2F0A95B02F0091C2
:1016B000A7041091A8044A2F0E94C133017000238F
:1016C00009F092C0A43011F0A83041F40A2F0E9412
:1016D0005E1A07E514E00E94A419D2C509B310E010
:1016E00022E0B29F402D0E94C7330170002389F091
:1016F00009B310E022E0B29F402D43950E94C7330A
:101700000170002331F4E1E3F8E00585006105870D
:10171000B2C009B310E022E0B29F402D0E94C7334F
:101720000170002391F009B310E022E0B29F402D38
:1017300043950E94C7330170002339F020E632E060
:1017400007E514E00E943F1996C009B310E022E0BB
:10175000B29F402D0E94C7330170002301F509B3E9
:1017600010E022E0B29F402D43950E94C7330170E4
:101770000023A9F002E0B09F402D439501E010E066
:101780000E94BB3300951091A10310231093A10375
:1017900020E632E003E614E00E943F196CC009B372
:1017A00010E022E0B29F402D0E94C7330170002359
:1017B00009F061C009B310E022E0B29F402D4395CB
:1017C0000E94C7330170002309F055C002E0B09FAA
:1017D000402D439501E010E00E94BB331091A1031E
:1017E000102B1093A10347C04A2F0091A203109120
:1017F000A3030E94C1330170002331F0E1E3F8E05C
:1018000005850061058737C00091A4031091A503E9
:101810004A2F0E94C13301700023B1F04A2F01E02A
:1018200010E00E94BB3300951095EFE9F3E02081B2
:101830003181202331232083318320E632E003E607
:1018400014E00E943F1917C00091A4031091A50352
:101850004A2F0E94C1330170002369F44A2F01E02E
:1018600010E00E94BB33EFE9F3E020813181202BAF
:10187000312B20833183E1E3F8E0058504FF06C0C6
:1018800020E632E004ED10E00E943F1901E00ED6A0
:10189000F7C420E010E000E00E94D21AF1C40091E9
:1018A000A7041091A804012B81F403EF14E00E9417
:1018B0006B190FEF14E00E94A41900913B0800235C
:1018C00019F405E000933108DBC40E94C01AA02F70
:1018D00000913708083018F007E0009337080091AE
:1018E00037080395402E00913208015039F10A95CE
:1018F000F1F10A9509F48BC00A9509F499C00A958B
:1019000009F4A7C00A9509F4EFC0E1E3F8E0058502
:1019100001FD04C000E00093900204C0009136086D
:101920000E945E1A03ED13E00E946B19042D0E94C1
:101930005E1A07EF13E00E94A419A2C400913608B2
:101940000E945E1A03ED13E00E946B19E1E3F8E0D8
:10195000058501FD04C000E00093900203C0042D42
:101960000E945E1A07EF13E00E94A41989C4009137
:10197000A7041091A8044A2F0E94C13301700023CC
:1019800081F403EF14E00E946B190FEF14E00E9442
:10199000A41900913B08002319F400E000933208D9
:1019A0006FC495E222E930E05524240D351D4A2FFD
:1019B00050E00CE110E00E94B333200F311FA90169
:1019C0000E9489330E945E1A10E0F801E057FD4F33
:1019D00090830FE614E00E946B1929E930E0042D92
:1019E00010E0000F111F200F311F4A2F50E00CE1B3
:1019F00010E00E94B333200F311FA9010E948C33E5
:101A00000E94661A0BE714E00E94A41939C4E1E3AE
:101A1000F8E0058501FF05C00FE614E00E946B1990
:101A200002C000E043D507E814E00E94A41928C4CE
:101A30000FE614E00E946B19E1E3F8E0058501FF71
:101A400005C007E814E00E94A4191AC401E02ED5CD
:101A500017C495E222E930E05524240D351D4A2FA4
:101A600050E00CE110E00E94B333200F311FA901B8
:101A70000E9489330E945E1A10E0F801E057FD4F82
:101A800090830FE614E00E946B1920E632E003E039
:101A900014E00E943F19802F009136080E94DD1942
:101AA000005D90E0FC01E05AFD4F0083839500E269
:101AB00090E0FC01E05AFD4F0083839590E020E622
:101AC00032E0280F391F0FE014E00E943F19800F09
:101AD000042D0E94DD19005D90E0FC01E05AFD4FED
:101AE000008301E0E3D4CCC300919E04002349F4B9
:101AF00003E914E00E946B190FE914E00E94A41995
:101B0000BFC329E930E0042D10E0000F111F200FA2
:101B1000311F4A2F50E00CE110E00E94B333200F38
:101B2000311FA9010E948C330E94661A0BE714E052
:101B30000E946B1920E632E003E014E00E943F1996
:101B4000802F009136080E94DD19005D90E0FC01B5
:101B5000E05AFD4F0083839500E290E0FC01E05ADB
:101B6000FD4F0083839590E020E632E0280F391F77
:101B70000FE014E00E943F19800F042D0E94DD1930
:101B8000005D90E0FC01E05AFD4F008301E08ED43F
:101B900077C300913B08002319F405E00093310856
:101BA0000BEA14E00E946B1920E632E007EB14E028
:101BB0000E943F19802F90E020E632E0280F391F65
:101BC000009136080E94051A800F01E490E0FC01A4
:101BD000E05AFD4F008383950091370803950E94DA
:101BE000DD19005D90E0FC01E05AFD4F0083839514
:101BF00001E05CD445C300913B08002319F405E0E3
:101C00000093310800913208015039F10A9509F426
:101C1000CCC00A9509F422C10091A0040023B1F4BC
:101C2000E1E3F8E0058501FF05C003EC14E00E9444
:101C30006B1902C000E03AD4E1E3F8E0058501FF4A
:101C400002C0D3D31DC301E031D41AC320E332E074
:101C500003EC14E00E943F1910C00091A00400237F
:101C600031F40FEC14E00E946B19BFD309C320E3D9
:101C700032E00FEC14E00E943F192CE332E007E160
:101C800015E00E943F1920E632E003ED13E00E94C8
:101C90003F19802F90E020E632E0280F391F009195
:101CA00036080E94051A1091A1041A9506E0109FAB
:101CB000902D1091A3041A9502E0109F900D0091B1
:101CC0003708023009F493958CE00091A2040130AA
:101CD000A9F4082F10E020E632E0200F311F492F31
:101CE00050E00AE010E00E94B333A80100E511E0E3
:101CF000040F151F0E943F19800F2DC00091A204F0
:101D00000230A9F4082F10E020E632E0200F311F46
:101D1000492F50E00AE010E00E94B333A80104E02C
:101D200012E0040F151F0E943F19800F14C0082FE6
:101D300010E020E632E0200F311F492F50E00AE08A
:101D400010E00E94B333A80108EB12E0040F151F46
:101D50000E943F19800F20E0082F10E0F801E05AA0
:101D6000FD4F208383952CE632E0009136080E94D7
:101D7000541912E00CE01DD400E00E943C1B20919D
:101D8000340830E000E312E0020F131F0E9408192C
:101D900000E40E943C1B2091350830E000E612E090
:101DA000020F131F0E9408196BC220E332E004E205
:101DB00015E00E943F192CE332E00CE315E00E948D
:101DC0003F1920E632E000E315E00E943F198CE065
:101DD0002CE632E008E415E00E943F19800F90E005
:101DE00020E632E0280F391F009136080E94051ABC
:101DF000800F01E490E0FC01E05AFD4F00838395E1
:101E000090E020E632E0280F391F00913708039553
:101E10000E94051A800F00E090E0FC01E05AFD4F9F
:101E20000083839512E00CE0C4D300E00E943C1BC9
:101E30002091340830E000E312E0020F131F0E94EB
:101E4000081900E40E943C1B2091350830E000E6B0
:101E500012E0020F131F0E94081912C207EE14E0CD
:101E60000E946B19009136080E945E1A902F0BE0B9
:101E700015E00E94A41904C200913208015099F1A2
:101E80000A9509F452C000913308043089F40CE635
:101E900015E00E946B19E1E3F8E0058501FF05C03C
:101EA00004E815E00E94A419EBC101E0FFD2E8C1EB
:101EB00000913308053089F40CE615E00E946B1997
:101EC000E1E3F8E0058501FF05C008E715E00E94A1
:101ED000A419D6C101E0EAD2D3C104EB15E00E94F7
:101EE0006B19B3D2CDC108EA15E00E946B190091BD
:101EF0003308043029F404E815E00E94A4190AC04C
:101F000000913308053029F408E715E00E94A41970
:101F100001C09BD200913B08002369F502E00093C9
:101F2000320804E100933B08ABC100913308043050
:101F300021F000913308053089F400913B0800231B
:101F400049F000E915E00E946B190CE915E00E94C8
:101F5000A41996C100E00093310892C100913B089A
:101F6000002331F000E615E00E946B196ED288C1A3
:101F700005E00093310884C100913208E8EEF0E0FA
:101F8000FBBFFAE00C94EA3300EC15E00E946B19F9
:101F900001E08CD200E500933B0872C100913B0840
:101FA0000D3348F00CEC15E00E946B1908ED15E0BC
:101FB0000E94A41965C100913B08093248F004EE63
:101FC00015E00E946B1900EF15E00E94A41958C19A
:101FD00000913B08053148F00CEF15E00E946B19A9
:101FE0000CEF15E00E94A4194BC100913B0800239F
:101FF00049F008E016E00E946B1908E016E00E9424
:10200000A4193EC100913B08002319F402E000939B
:10201000320836C104E116E00E946B190091E50414
:102020001091E604012B19F009ED00936002009174
:10203000E7041091E804012B19F00AED0093630204
:102040000091EB041091EC04012B19F00CE30093C8
:1020500065020091E9041091EA04012B19F00EE3E6
:10206000009367020091ED041091EE04012B31F012
:1020700009ED009360020AED0093630200E40E9400
:102080003C1B00E612E00E942B19FAC000E216E0A9
:102090000E946B19C89B03C001E300936002C99BB7
:1020A00003C002E300936202CA9B03C003E30093F0
:1020B0006402CB9B03C004E300936602CC9B03C085
:1020C00005E300936802CD9B03C006E300936A0218
:1020D00001E0ECD1D5C00CE216E00E946B1920E6BD
:1020E00032E004EA10E00E943F19802F40E450E003
:1020F0000E94893302950F700E94703090E0FC01BD
:10210000E05AFD4F0083839540E450E00E948933FC
:102110000F700E94703090E0FC01E05AFD4F008388
:10212000839501E0C3D1ACC008E316E00E946B19AF
:102130000091E5041091E604012B31F40091E704CD
:102140001091E804012B29F004E416E00E94A41980
:1021500097C000E516E00E94A41992C00CE516E0B5
:102160000E946B1920E632E004E716E00E943F1956
:10217000802F00912B08002391F100912A080295ED
:102180000F700E94703090E0FC01E05AFD4F008318
:10219000839500912A080F700E94703090E0FC0136
:1021A000E05AFD4F0083839500912B080A3061F4BB
:1021B000959A00912A08039500939C00E7EFF4E0BC
:1021C00000810061008306C0E7EFF4E000810F7E2C
:1021D0000083959800912B080A9500932B0801E045
:1021E00065D14EC008E616E00E946B1920E632E089
:1021F00004E716E00E943F19802F00912908002370
:1022000039F10091280802950F700E94703090E01B
:10221000FC01E05AFD4F00838395009128080F7060
:102220000E94703090E0FC01E05AFD4F00838395DE
:10223000009129080A3031F41A9A00912808039570
:102240000CB901C01A98009129080A950093290831
:1022500001E02CD10CE300933B0812C000E816E02B
:102260000E946B190CE816E00E94A41900913B082B
:10227000002331F400E00093310804E100933B08AF
:10228000E6E00C944E3400E0009390020CE810E07D
:102290000E946B1908E910E00E94A41908959A930E
:1022A0008A9320E332E004EA10E0E9D7802F40E48B
:1022B00050E00E94893302950F700E94703090E0C8
:1022C000FC01E05DFD4F0083839540E450E00E94F7
:1022D00089330F700E94703090E0FC01E05DFD4F8B
:1022E0000083839500E0E2D000EB10E00E94A41987
:1022F0008991999108950E9448340091A004002387
:1023000021F00091A004013011F491E001C094E0AB
:10231000192F0CE04ED1002339F004E0009331086E
:102320000E94971A0093360800913308002381F425
:1023300001E00093330803EA13E0CDD707EC13E084
:102340000E94A4190E94892900E0009335084AC020
:102350000FEA13E0C0D70091A7041091A804012B45
:1023600021F40BEB13E0F0D73DC090E080E090311A
:1023700070F50091A7041091A804492F0E94C13361
:102380000170002311F1092F0E94DD19A02F0A2FDF
:1023900002950F700E94021C282F30E0F901E05ACC
:1023A000FD4F008383950A2F0E94021C282F30E0E6
:1023B000F901E05AFD4F008383952CE2082F10E0CD
:1023C000F801E05AFD4F208383959395D0CF00E428
:1023D0000E943C1B2091350830E000E612E0020F1D
:1023E000131F16D7E3E00C9451349A938A9320E696
:1023F00032E003E014E043D7802F00913608DDD7A8
:10240000005D90E0FC01E05AFD4F0083839500E2FF
:1024100090E0FC01E05AFD4F0083839590E020E6B8
:1024200032E0280F391F0BE114E029D7800F00910B
:102430003708C3D7005D90E0FC01E05AFD4F0083F0
:1024400001E034D08991999108959A938A9320E676
:1024500032E003E014E013D7802F00913608ADD7A7
:10246000005D90E0FC01E05AFD4F0083839500E29F
:1024700090E0FC01E05AFD4F0083839590E020E658
:1024800032E0280F391F0FE014E0F9D6800F0091D9
:102490003708039592D7005D90E0FC01E05AFD4FAC
:1024A000008301E003D08991999108958A93802F48
:1024B000882339F400E00E943C1B00E312E0A8D618
:1024C00006C000E40E943C1B00E612E0A1D6899100
:1024D00008959A938A93902F812FE1E3F8E0058580
:1024E00002FB00E000F9E1E3F8E0158511FB10E0E4
:1024F00010F9011709F1E1E3F8E0058501FB00E0BF
:1025000010E000F9E1E3F8E000FB058502F905873A
:1025100000E010E000F9E1E3F8E0058501FF0CC000
:1025200000919F04039500939F0400919F048017DE
:1025300018F400E000939F04992361F400E00E94E6
:102540003C1B20919F0430E000E312E0020F131FB8
:102550005FD60BC000E40E943C1B20919F0430E03A
:1025600000E612E0020F131F53D689919991089546
:1025700000913A08002331F000913A080A9500933F
:102580003A080895E1E3F8E0058501FD09C003E09C
:1025900000933A08E1E3F8E00585026005870895B5
:1025A00002E000933A08E1E3F8E005850D7F058736
:1025B0000895402F00913C08002331F000913C0821
:1025C0000A9500933C081DC000913D0800933C080B
:1025D00000913408040F0093340800913508040F6B
:1025E000009335082091340830E0419F20153105D3
:1025F00044F000E00093340800E00093350801E067
:10260000089500E0089530E020E02031C0F540E07A
:10261000022F10E0F801E550FC4F40830091A70421
:102620001091A804422F0E94C1330170002329F1A8
:1026300060E0683010F5422F50E00CE110E00E949D
:10264000B33343E950E0400F511F70E0460F571F6E
:102650000E948933013578F0462F01E010E00E9496
:10266000BB33402F022F10E0F801E550FC4F0081F2
:10267000042B008331E06395DCCF2395C6CF032F75
:1026800008959A938A9300E010E00093F603109364
:10269000F70300E010E00093F8031093F90300E063
:1026A0000093FA0300E010E000930C0410930D0473
:1026B00080E0803108F0B7C00091A7041091A80411
:1026C000482F0E94C1330170002309F4AAC003D52A
:1026D000482F0091A2031091A3030E94C1330170FF
:1026E000002361F400E010E0282F30E0220F331FB8
:1026F000F901E955FC4F0083118328C0082F10E031
:10270000000F111FF801E955FC4F008111810935B7
:1027100022E0120770F0482F01E010E00E94BB3366
:10272000E6EFF3E020813181202B312B20833183B0
:102730000DC0082F10E0000F111FF801E955FC4FE4
:10274000008111810F5F1F4F008311830091A4034B
:102750001091A503482F0E94C1330170002361F43A
:1027600000E010E0282F30E0220F331FF901E95577
:10277000FC4F00A311A328C0082F10E0000F111F69
:10278000F801E955FC4F00A111A1093522E012071B
:1027900070F0482F01E010E00E94BB33E6EFF3E059
:1027A00022813381202B312B228333830DC0082FCC
:1027B00010E0000F111FF801E955FC4F00A111A115
:1027C0000F5F1F4F00A311A3482F00919407109192
:1027D00095070E94C1330170002339F400E090E0B6
:1027E000FC01E25FFB4F00831CC090E0FC01E25F54
:1027F000FB4F0081053670F0482F01E010E00E9489
:10280000BB33ECE0F4E020813181202B312B20839D
:10281000318307C090E0FC01E25FFB4F008103952C
:102820000083839546CF80E0863008F045C0009154
:10283000C30410E0482F0E94C73301700023D1F178
:102840000091A60310E0482F0E94C73301700023B7
:1028500061F400E010E0282F30E0220F331FF9016F
:10286000E951FC4F0083118325C0082F10E0000FB1
:10287000111FF801E951FC4F00811181093522E057
:10288000120758F0482F01E010E00E94BB3310916E
:10289000FA03102B1093FA030DC0082F10E0000F5D
:1028A000111FF801E951FC4F008111810F5F1F4F8B
:1028B000008311838395B8CF8991999108959A9354
:1028C0008A930091450410914604012B61F4009114
:1028D000470410914804012B31F4E8E9F4E0008149
:1028E0000F7B00835CC080E0803108F058C0482F27
:1028F00000914504109146040E94C13301700023E9
:1029000009F1482F01E010E00E94BB3300951095BB
:10291000E5E4F4E0208131812023312320833183D9
:1029200001E00093370890E0FC01E056FB4F05857D
:102930000093360808E00093310800E00093320865
:10294000AFD22DC00091470410914804482F0E9437
:10295000C1330170002309F1482F01E010E00E940B
:10296000BB3300951095E5E4F4E022813381202308
:1029700031232283338302E00093370890E0FC0187
:10298000E056FB4F05850093360808E000933108B8
:1029900000E00093320884D202C08395A5CF8991CC
:1029A000999108959A938A9300919804007E802FBC
:1029B000813250F400919804007E002311F401E06C
:1029C00001C000E0002309F037C000914904002352
:1029D00031F4E8E9F4E000810F7D00832DC080E050
:1029E000863050F50091490410E0482F0E94C7330B
:1029F00001700023F9F0482F01E010E00E94BB3382
:102A000000951091490410231093490490E0FC01B3
:102A1000E056FB4F058D00933608082F0170039593
:102A20000093370808E00093310800E00093320873
:102A300037D202C08395D4CF8991999108959A9302
:102A40008A9300919804007F802F813150F4009187
:102A50009804007F002311F401E001C000E000238E
:102A600009F06EC080E0803108F06AC0482F009104
:102A70004A0410914B040E94C1330170002309F1F4
:102A8000482F01E010E00E94BB3300951095EAE466
:102A9000F4E020813181202331232083318301E040
:102AA0000093370890E0FC01E056FB4F058500934A
:102AB000360808E00093310801E00093320800D2A4
:102AC0003FC000914C0410914D04482F0E94C13327
:102AD0000170002309F1482F01E010E00E94BB3390
:102AE00000951095EAE4F4E022813381202331231C
:102AF0002283338302E00093370890E0FC01E05624
:102B0000FB4F05850093360808E00093310801E08B
:102B100000933208D5D114C000914A0410914B049F
:102B2000012B61F400914C0410914D04012B31F400
:102B3000E8E9F4E000810F7E008302C0839593CF23
:102B40008991999108959A938A9300919804087FA6
:102B5000802F893050F400919804087F002311F4ED
:102B600001E001C000E0002309F037C000914E04ED
:102B7000002331F4E8E9F4E00081077F00832DC0F1
:102B800080E0863050F500914E0410E0482F0E94FE
:102B9000C73301700023F9F0482F01E010E00E94D4
:102BA000BB33009510914E04102310934E0490E017
:102BB000FC01E056FB4F058D00933608082F01708D
:102BC00003950093370808E00093310801E0009373
:102BD000320876D102C08395D4CF89919991089516
:102BE0000E944834009198040C7F802F853050F467
:102BF000009198040C7F002311F401E001C000E073
:102C0000002309F078C080E08031A8F4082F10E09C
:102C1000F801E15BFB4F0081902F992351F0009167
:102C2000A7041091A804482F0E94C133017000230B
:102C300041F48395E9CFE8E9F4E000810B7F00835C
:102C40005AC000910B04003808F055C000910B04E5
:102C5000069506950695802F0091A7041091A8046B
:102C6000482F0E94C13301700023D1F1082F10E0DA
:102C7000F801E15BFB4F0081902F10910B0408E0FD
:102C8000809F1019A12F092F10E04A2F0E94C733EF
:102C90000170002351F100912D02013078F04A2F8C
:102CA00001E010E00E94BB33202F2095082F10E098
:102CB000F801E15BFB4F008102230083082F10E045
:102CC000F801E056FB4F058500933608A0933708BE
:102CD00008E00093310802E000933208E1D00BC015
:102CE00000910B04076000930B0400910B04039503
:102CF00000930B04A6CFE3E00C9451340E944834B7
:102D000000919804802F823048F4009198040023A9
:102D100011F401E001C000E0002309F071C080E07F
:102D20008031A8F4082F10E0F801EF59FB4F008123
:102D3000902F992351F00091A7041091A804482FD7
:102D40000E94C1330170002341F48395E9CFE8E983
:102D5000F4E000810E7F008353C00091240400380A
:102D600008F04EC000912404069506950695802F24
:102D70000091A7041091A804482F0E94C13301704C
:102D8000002399F1082F10E0F801EF59FB4F008163
:102D9000902F1091240408E0809F1019A12F092F73
:102DA00010E04A2F0E94C7330170002319F14A2F07
:102DB00001E010E00E94BB33202F2095082F10E087
:102DC000F801EF59FB4F008102230083082F10E028
:102DD000F801E056FB4F058500933608A0933708AD
:102DE00007E0009331085CD00BC000912404076019
:102DF0000093240400912404039500932404ADCF90
:102E0000E3E00C9451349A938A93009198040E7FD6
:102E1000802F833048F400919804002311F401E0DE
:102E200001C000E0002309F038C080E0803150F597
:102E3000482F00915F04109160040E94C13301701B
:102E40000023F1F0482F01E010E00E94BB33009511
:102E50001095EFE5F4E02081318120233123208398
:102E6000318390E0FC01E056FB4F05850093360866
:102E700008E00093310803E00093320811D002C04B
:102E80008395D4CF00915F0410916004012B29F445
:102E9000E8E9F4E000810D7F00838991999108951C
:102EA00000E00093340800E0009335080AE0009346
:102EB0003C080AE000933D0804E100933B080895B4
:102EC00000E00093340800E00093350804E100932B
:102ED0003C0804E100933D0808E200933B08089594
:102EE0009A938A9300919804002309F0F1C000910D
:102EF000F6031091F70300934A0410934B040091DA
:102F0000F8031091F90300934C0410934D040091C1
:102F10004A0410914B04012B31F400914C041091A0
:102F20004D04012B29F0E8E9F4E000810061008301
:102F30000091FA031091C304012300934E04009101
:102F40004E04002329F0E8E9F4E0008108600083E2
:102F5000C2D00091A2031091A303009345041093E3
:102F6000460400914A0410914B0400951095E5E445
:102F7000F4E02081318120233123208331830091AB
:102F8000A4031091A50300934704109348040091F3
:102F90004C0410914D0400951095E5E4F4E0228175
:102FA0003381202331232283338300914504109100
:102FB0004604012B31F40091470410914804012B81
:102FC00029F0E8E9F4E00081006400830091A603A1
:102FD0001091C30401230093490400914E0400950D
:102FE00010914904102310934904009149040023CF
:102FF00029F0E8E9F4E000810062008300910C040C
:1030000010910D042091A7043091A80402231323EA
:1030100000935F041093600400915F0410916004BA
:10302000012B29F0E8E9F4E000810260008380E0F0
:103030008031F0F50091A7041091A804482F0E9458
:10304000C1330170002391F190E0FC01EB5DFB4F77
:10305000008190E0FC01EF59FB4F008300E090E01D
:10306000FC01EB5DFB4F008390E0FC01EF59FB4F4F
:103070000081002329F0E8E9F4E000810160008389
:1030800090E0FC01E550FC4F008190E0FC01E15B29
:10309000FB4F008390E0FC01E15BFB4F00810023CC
:1030A00029F0E8E9F4E00081046000838395C0CF53
:1030B000009198040076002329F00091980400768E
:1030C0000093980400E000930B0400E000932404B4
:1030D0008991999108950091A7041091A804E2EABA
:1030E000F3E020813181202331232083318300913B
:1030F000A9041091AA04E2EAF3E02081318120239F
:103100003123208331830091A7041091A804E2EABF
:10311000F3E0228133812023312322833383009102
:10312000AB041091AC04E2EAF3E022813381202366
:103130003123228333830895B801142E10E0111532
:1031400090F4AB010E948933F9014081041729F002
:10315000F9010081AB010E949A336F5F7F4F2F5FAF
:103160003F4F1395ECCF08959A938A9397EA80E0A6
:103170008A3148F420E0082F10E0F801E753FB4FB4
:1031800020838395F5CF2AE130E009EC14E00E941A
:10319000AF300093E3041093E40480E08031B0F496
:1031A000A895973A99F44CE129EC34E0642F482F24
:1031B00050E00CE110E00E94B333A80103E910E0F5
:1031C000040F151F462FB8DF8395E8CF8991999199
:1031D00008959A938A9395EA80E0893228F400E072
:1031E0000093A0048395F9CF953A71F449E220EA5F
:1031F00034E001E410E0A0DFA89549E220EA34E0E1
:103200000AE610E099DFA895AFDF899199910895BA
:103210000E944634D8014424AC9A80E044248C3087
:10322000B8F4FD010081002311F4442443944420A8
:1032300029F40C914BD2902F119601C090E2092FE6
:1032400002950F70DBD1092F0F70D8D18395E7CF8E
:10325000E5E00C944F340E944734D801AC9A80E0EA
:103260008C3050F40C9102950F70C8D10C910F70F6
:10327000C5D111968395F4CFE4E00C945034592FC6
:10328000682FC80100E0FC011491F9011083019638
:103290002F5F3F4F0395FC011491112311F00C3067
:1032A00090F3862F952F08950E944734902FD901CF
:1032B00080E0FD0100810E3421F4092F0E9470305E
:1032C0000C93119683950C91002311F08C3088F3A8
:1032D000E4E00C9450340E944534D80180E044244A
:1032E000FD01049190E0FC01E05DFD4F008311962B
:1032F0008395FD010491002311F08C3088F3009137
:1033000090020023B1F05524F201E057FD4F0081F7
:10331000002379F08C3068F45524F201E057FD4F1A
:10332000008190E0FC01E05DFD4F008343948395B4
:10333000EACF00E090E0FC01E05DFD4F008300E09B
:10334000B5D8E6E00C944E340E944534D80180E0B4
:103350004424FD01049190E0FC01E05AFD4F0083FC
:1033600011968395FD010491002311F08C3088F3B0
:10337000009190020023B1F05524F201E057FD4F77
:103380000081002379F08C3068F45524F201E05775
:10339000FD4F008190E0FC01E05AFD4F0083439413
:1033A0008395EACF00E090E0FC01E05AFD4F0083F6
:1033B00001E07CD8E6E00C944E348A93802F4AE0FA
:1033C000082F0E94A53316E0019F800D082F8991D8
:1033D00008950E944534280144E650E082010E948D
:1033E000CD33902FB92FA0E0242D492F50E004E6D3
:1033F00010E00E94B333201B022FDFDF10E0A00F8C
:10340000B11F8D01E6E00C944E340E944534A02F8C
:103410002901A43630F10A2F10E0DBDFC8018C014E
:10342000012F10E0EFD1F201008301E0400E00E037
:10343000501E44E08C010E94C133E4D1F2010083AC
:1034400001E0400E00E0501E082FDCD1F2010083A5
:1034500001E0400E00E0501E00E0F201008303E0B6
:103460002AC0AA30E0F00A2FA8DF10E0C80144E02B
:103470008C010E94C133C6D1F201008301E0400EED
:1034800000E0501E082FBED1F201008301E0400E83
:1034900000E0501E00E0F201008302E00CC00A2FA1
:1034A000B1D1F201008301E0400E00E0501E00E0C7
:1034B000F201008301E0E6E00C944E348A93802F01
:1034C00020E932E0082FA1DF899108950E94473456
:1034D000C801883E03E0900780F001E3009390026A
:1034E00000E30093910200E30093920200E3009353
:1034F000930200E00093940217C08C016ADFD801A8
:103500008D01012F10E07ED10093900244E08D01E7
:103510000E94C13377D1009391020A2F73D1009397
:10352000920200E000939302E4E00C94503443E6EE
:1035300020E0203188F430E0F901E056FB4F0585AA
:10354000102F112339F0141708F4412F113011F402
:1035500001E008952395EDCF042F089501E020E0C8
:10356000203168F430E0F901E056FB4F3585132F28
:10357000112319F0011708F4012F2395F1CF0895B5
:1035800020E0203168F430E0F901E056FB4F05857A
:1035900010913608011711F4022F08952395F1CFE9
:1035A0000FEF08950E944734B02F912FA22FC49897
:1035B00007B30F6007BBAC9800E020D088E0BB23C6
:1035C00011F0846001E0992311F0826001E0AA23E8
:1035D00011F0816001E0082F11D0E4E00C94503428
:1035E000C49807B30F6007BBAC9800E007D001E0B8
:1035F00005D000E21EE40E94F22808958A93802FED
:10360000C49807B30F6007BB08B3007F08BB082F3F
:103610000F7018B3102B18BBAD9A05E010E00E9494
:10362000F228AD980AE010E00E94F22889910895EE
:103630008A9307B3007F07BBC49AAC9AAD9A0AE09D
:1036400010E00E94F22806B30295007F802FAD980B
:103650000AE010E00E94F228AD9A0AE010E00E9411
:10366000F22806B30F70802BAD980AE010E00E949C
:10367000F228082F899108958A93802FC49807B360
:103680000F6007BBAC988F7700E0082F02950F7092
:103690000860B4DF082F0F70B1DF899108958A9315
:1036A00080E00FE7E9DFAC9A05E0A8DF07E0A6DFDE
:1036B0000FE7E2DFBDDF802F873519F4C79801E0FF
:1036C00003C0BF9AC79A00E0899108958A93802F1A
:1036D0008F3511F400E294C0803611F40FEF90C0E2
:1036E000803C10F4082F8CC0082FEEEFF0E0FBBFF9
:1036F000FAE00C94EA3301E483C000EA81C002E4FA
:103700007FC001EA7DC000EE7BC005E479C002EA1B
:1037100077C003EA75C004EA73C005EA71C006EA1F
:103720006FC00BE46DC007EA6BC00DE469C008E42C
:1037300067C00FE465C008EA63C000E561C003E448
:103740005FC004E55DC009EA5BC00AEA59C008E54C
:1037500057C001EE55C00BEA53C00CEA51C002EE4F
:103760004FC00DEA4DC00EEA4BC004EC49C00FEA51
:1037700047C000EB45C001EB43C001E641C002EB8E
:103780003FC003EB3DC004EB3BC003EE39C005E690
:1037900037C005EB35C006EB33C007EB31C008EB93
:1037A0002FC009EB2DC00AEB2BC00BEB29C00CEB93
:1037B00027C00DEB25C00FE623C00EEB21C000E7AC
:1037C0001FC003E61DC00FEB1BC009E719C004EEC4
:1037D00017C008E715C005EE13C000EC11C001ECDE
:1037E0000FC006EE0DC002EC0BC003EC09C004ECE8
:1037F00007C005EC05C006EC03C007EC01C000E201
:1038000089910895102F1F701A3018F4105D012F40
:103810000895012F0A5059F00A9559F00A9559F068
:103820000A9559F00A9559F00A9559F00CC001E42F
:10383000089502E4089503E4089504E4089505E476
:10384000089506E4089500E208959CD04FD042EF19
:1038500054E029EE34E000E0CDD043EF54E02BEE0D
:1038600034E001E0C7D040EF54E025EE34E002E060
:10387000C1D041EF54E027EE34E003E0BBD09A9989
:103880002EC09B992CC000E010E00093E50410933B
:10389000E60400E010E00093E7041093E80400E081
:1038A00000932D02E5EEF4E0008511850F5F1F4FB8
:1038B000008711870091ED041091EE040C3221E095
:1038C000120798F001E00093EF0405E00093F40480
:1038D00000E010E00093ED041093EE04089500E082
:1038E00010E00093ED041093EE04089500912C0273
:1038F000039500932C0200912C02033308F441C07D
:10390000009131080530E8F1009131080830C9F123
:10391000009131080230A9F100E000932C020091DF
:103920002D02039500932D0200912D020F3F18F0F8
:1039300006E000932D0200913108083071F40091E7
:103940003208023051F400912D02033058F0E1E3C7
:10395000F8E005850860058705C0E1E3F8E0058526
:1039600008600587009131080A3059F000912D0256
:103970000F3039F400913108083019F005E0009358
:103980003108089501B1069506950695102F00910E
:103990006300202F20FB00E005F9102B40E450E0ED
:1039A0000E948933101721F400E000932E0208953D
:1039B00000912F02011731F010932F0200E00093C5
:1039C0002E02089500912E02039500932E0200917D
:1039D0002E02053670F040E450E00E9489332091B9
:1039E0002F02021731F000912F0240E450E00E94B4
:1039F0009A3308950E944734602FF9019A0103B366
:103A000010E0462F0E94C7330170002371F500E0DB
:103A100000932D02AEE3B8E00C91077F0C93008178
:103A200011810E3E42E0140730F4008111810F5FD6
:103A30001F4F0083118300811181043640E0140779
:103A400039F402E0D9010C9301E00093EF0426C0A1
:103A5000008111810C3241E0140701F505E0D90124
:103A60000C9301E00093EF0419C0D9010C910023DD
:103A7000A9F4808191818630904060F000811181AD
:103A80000B3440E0140730F401E0D9010C9301E05D
:103A90000093EF0400E010E000831183E4E00C9455
:103AA00050340E9447340091EF04002309F457C5B5
:103AB000A0E000913108E4EBF0E0FBBFFBE00C94E8
:103AC000EA3300919B04053A89F40091F204053031
:103AD00068F000E000939B0409E00093310800E0E7
:103AE0000093320804E00093330827C500919C043A
:103AF0000A3A59F40091F304053038F00AE00093D3
:103B0000310800E00093320818C50091C604002374
:103B100061F00091F004013060F40091F104013093
:103B200040F40091F404013020F40091F4040530D5
:103B300030F003E00093310800E000933208FDC448
:103B400000913208005061F00A9551F10A9509F48C
:103B500047C00A9509F48EC00A9509F4E9C0EDC47E
:103B60000091F004013020F40091F104013020F0C4
:103B700001E000933208E1C40091F204013040F00A
:103B8000009132080093A00402E000933208D5C4EB
:103B90000091F304013018F000E000933108CDC427
:103BA0000091F004013020F40091F104013020F084
:103BB00000E000933208C1C40091F204013040F0EB
:103BC000009132080093A00402E000933208B5C4CB
:103BD0000091F304013018F000E000933108ADC407
:103BE0000091F004013010F0C9D4A7C40091F10491
:103BF000013010F0B7D4A1C40091F204023010F1EA
:103C00000091A004002311F418D597C403E0009399
:103C100032080091A10410E0F801E15EFD4F00813F
:103C200000FD8BC402E00093A2040091A10410E007
:103C3000F801E15EFD4F008101FD7FC403E00093C8
:103C4000A2047BC40091F304023098F003E00093D7
:103C500031080091A0040093320800EA002E04E02D
:103C6000102E61E470E0F001AB0119E220E00E9447
:103C70003A3463C40091F004013068F00091A1046B
:103C800010E0F801E15EFD4F10810091A20489D49B
:103C90000093A20452C40091F104013068F0009135
:103CA000A10410E0F801E15EFD4F10810091A20433
:103CB00091D40093A20441C40091F204023080F137
:103CC00004E000933208EFE1F2E00091A20410E07A
:103CD000E00FF11F4091A10450E003E010E00E94CA
:103CE000B333E00FF11F008100FD27C402E0009311
:103CF000A304EFE1F2E00091A20410E0E00FF11F55
:103D00004091A10450E003E010E00E94B333E00FC3
:103D1000F11F008101FD11C403E00093A3040DC451
:103D20000091F304023018F002E00093320805C459
:103D30000091F0040130B8F0EFE1F2E00091A2044C
:103D400010E0E00FF11F4091A10450E003E010E00B
:103D50000E94B333E00FF11F10810091A30421D41E
:103D60000093A304EAC30091F1040130B8F0EFE13D
:103D7000F2E00091A20410E0E00FF11F4091A104D5
:103D800050E003E010E00E94B333E00FF11F108118
:103D90000091A3041FD40093A304CFC30091F204A5
:103DA000023010F04AD4C9C30091F304023018F075
:103DB00003E000933208C1C3E1E3F8E0058504FFA6
:103DC00011C00091F404053008F4B7C300E000937B
:103DD00031080AE000933B080FEF47E650E00E94ED
:103DE0009A33ABC30091F204023028F0B091360848
:103DF000B5DBB017A9F00091F204023008F442C01C
:103E00000091A0040130F1F50091A1040230D1F538
:103E10000091A2040130B1F50091A304033091F5A3
:103E200005E0009331080091A1031091C304102311
:103E30001093C30400919F031091A003E0EAF4E003
:103E4000238534852023312323873487DBD324E261
:103E500030E000EA14E00E94AF300093C4041093F5
:103E6000C5040091C4041091C50445E650E00E94C9
:103E70009E330091C4041091C5044EE850E00E94A6
:103E80009E335BC30091A004013069F40091A1044A
:103E9000023049F40091A204013029F40091A304F6
:103EA000033009F44AC30091F004023098F0E1E3D2
:103EB000F8E0058504FD0EC0B09136084FDBB01761
:103EC00049F004E00093310800913608039500930F
:103ED000360833C30091F304023078F0E1E3F8E0F0
:103EE000058504FD2AC3B091360821DBB01729F0FF
:103EF000009136080A95009336081FC30091F2041A
:103F0000013039F406E00093310800E000933208F4
:103F10000AC00091F204023030F006E0009331084C
:103F200003E00093320800913108063049F4009113
:103F3000A7041091A804012B19F404E100933B0895
:103F4000F6DA0093360800E000933708F6C20091D5
:103F50003208005099F00A9509F448C00A9509F40E
:103F600084C00A9509F4A2C00A9509F4BEC00A9556
:103F700009F4DAC00A9509F430C1DFC20091F004F7
:103F8000013080F0EBDA902F00913608091730F4F9
:103F900000913608039500933608CFC2C8DA009323
:103FA0003608CBC20091F104013080F0C0DA902FC6
:103FB00000913608901730F4009136080A95009366
:103FC0003608BBC2CBDA00933608B7C20091F204C0
:103FD000013020F001E000933208AFC20091F304F9
:103FE000013018F005E000933108A7C20091F004F9
:103FF000013070F000913708073030F40091370835
:1040000003950093370899C200E00093370895C2E2
:104010000091F104013070F000913708002331F075
:10402000009137080A950093370887C207E000938C
:10403000370883C20091F204013038F002E00093A7
:10404000320804E100933B0878C20091F304023087
:1040500020F005E00093310870C20091F3040130B4
:1040600018F000E00093320868C20091F3040130B8
:1040700021F401E00093320860C20091F3040230A1
:1040800020F005E00093310858C20091F204053099
:1040900060F009E00093310800E00093320801E08D
:1040A000009333080EE100933B0847C20091F004EF
:1040B000013020F40091F104013020F004E000937D
:1040C00032083BC20091F204013038F005E0009361
:1040D000320800E00093380855C00091F304013025
:1040E00018F005E00093310828C20091F004013077
:1040F00020F40091F104013020F003E00093320835
:104100001CC20091F204013038F006E0009332083E
:1041100000E0009339088FC00091F304013018F0DB
:1041200005E00093310809C20091F304013039F42D
:1041300006E00093320800E0009339087CC000914B
:10414000F304023020F005E0009331081BC0009119
:10415000F104013050F000913808003830F400913B
:1041600038080395009338080DC00091F004013021
:1041700048F000913808002329F0009138080A958A
:104180000093380870D20091380810E0F801E45626
:10419000FD4F0081802F8F3F89F400913808002364
:1041A00069F0009138080A950093380800913808A2
:1041B00010E0F801E456FD4F0081802F082F029592
:1041C0000F7010E0F801E056FB4F058500933608AC
:1041D000082F0F7000933708B0C10091F30401302D
:1041E00039F405E00093320800E000933808CACFA4
:1041F0000091F304023020F005E0009331081BC069
:104200000091F104013050F000913908003830F489
:10421000009139080395009339080DC00091F0040E
:10422000013048F000913908002329F00091390845
:104230000A950093390801E000939E04A3D200235D
:1042400021F400E000939E0478C10091390810E049
:10425000F801E35EFC4F0081802F8F3F89F40091CD
:104260003908002369F0009139080A95009339084C
:104270000091390810E0F801E35EFC4F0081802FC7
:10428000082F02950F7010E0F801E056FB4F0585EE
:1042900000933608082F0F70009337084EC1009125
:1042A0003208023089F40091F204053060F009E030
:1042B0000093310800E00093320801E000933308D6
:1042C0000EE100933B0839C10091F204013039F44A
:1042D00006E00093310800E0009332080AC0009124
:1042E000F204023030F006E00093310803E000935E
:1042F00032081DD9902F00913608091710F49093B9
:1043000036081BC10091F304013038F000E000933F
:10431000330805E00093310810C1009132080023F2
:1043200009F00BC10091F004013020F40091F10478
:10433000013088F000913308043021F405E0009347
:104340003308FBC000913308053009F0F6C004E0E3
:1043500000933308F2C00091F404023008F4EDC079
:1043600000913308043059F408EA15E00E946B19F3
:1043700004E815E00E94A4190E94B418A4C000919A
:104380003308053059F408EA15E00E946B1908E774
:1043900015E00E94A4190E94E91895C00091330805
:1043A000015009F451C00A9519F00A9509F08BC023
:1043B000A6EBE6D8902F69EC74E0492F50E00CE1B1
:1043C00010E00E94B33323E9022E20E0122E000EEB
:1043D000111EFB01A0011CE120E00E943A3400E024
:1043E00010E02091370830E0220F331FF901E75326
:1043F000FB4F0087118700E02091370830E0F9017A
:10440000E753FB4F00832AE130E009EC14E00E94FF
:10441000AF300093E3041093E404A895A63B91F415
:104420004CE129EC34E0642F492F50E00CE110E01E
:104430000E94B333A80103E910E0040F151F462FB3
:104440000E949C18A8953FC0A7EB9AD8902F69ECC2
:1044500074E0492F50E00CE110E00E94B33323E9EF
:10446000022E20E0122E000E111EFB01A0011CE105
:1044700020E00E943A3400E02091370830E0F90152
:10448000E753FB4F00832AE130E009EC14E00E947F
:10449000AF300093E3041093E404A895A73B91F494
:1044A0004CE129EC34E0642F492F50E00CE110E09E
:1044B0000E94B333A80103E910E0040F151F462F33
:1044C0000E949C18A89501E00093320804E1009333
:1044D0003B0833C00091F304023020F005E0009364
:1044E00031082BC000913208002399F40091F004A8
:1044F000013020F40091F104013020F001E000933C
:10450000320807C00091F304013018F005E0009371
:1045100031080091F204023080F000913208083036
:1045200030F40091320803950093320806C000E091
:104530000093320805E00093310800E00093EF0497
:1045400000E00093F00400E00093F10400E0009329
:10455000F20400E00093F30400E00093F404E4E0CC
:104560000C9450340091A104033021F402E0009334
:10457000A104089501E00093A10408950091A1040D
:10458000015019F00A9529F0089502E00093A10462
:1045900008950091A004002319F003E00093A10402
:1045A0000895202F022F005029F00A9519F00A953E
:1045B00049F00CC011FB16F402E0089512FB46F41A
:1045C00003E0089512FB26F403E00895022F0895F6
:1045D000022F0895202F022F005021F0025051F099
:1045E0000A9561F411FB16F402E0089510FB46F4FD
:1045F00001E0089510FB26F401E00895022F0895CC
:10460000022F089500E00093C60400E010E000933C
:10461000C4041093C504A89549E220EA34E001E4FB
:1046200010E00E949C18A89549E220EA34E00AE6CE
:1046300010E00E949C18A895089505E000933208A8
:1046400000E00093330800E000939E0308E200932B
:104650003C0808E200933D0800E00093340800E0C5
:104660000093350808959A938A93EF97EF972297CE
:1046700020E080E0203168F50091A7041091A804A3
:10468000422F0E94C1330170002309F160E06830BD
:10469000F0F4422F50E00CE110E00E94B33343E904
:1046A00050E0400F511F062F10E0400F511F0E9495
:1046B0008933002351F0022F0295007F060FFE017F
:1046C00090E0E80FF91F008383956395E0CF239571
:1046D000D1CF382E20E0231508F047C030E0222E3D
:1046E00060E0631568F5FE01062F10E0E00FF11F92
:1046F00000810F3F19F1FE01062F10E0E00FF11FBE
:10470000408142954F7050E00CE110E00E94B333BD
:1047100043E950E0400F511FFE01062F10E0E00F6B
:10472000F11F008110E00F701070400F511F0E94A8
:104730008933702F371710F4372F262E6395D1CF7A
:10474000FE01022D10E0E00FF11F4081022F10E06A
:10475000F801E456FD4F40834FEFFE01022D10E0BB
:10476000E00FF11F40832395B6CF4FEF022F10E0EB
:10477000F801E456FD4F4083EF96EF96229689911B
:10478000999108950E944334EF97EF97229730E074
:1047900020E080E0203188F50091A7041091A80462
:1047A000422F0E94C1330170002329F160E068307C
:1047B00010F5EBE9F0E0062F10E0000F111FE00FFD
:1047C000F11F422F50E00CE110E00E94B333E00FE4
:1047D000F11FAF010E948C33012B59F0022F02957B
:1047E000007F060FFE0190E0E80FF91F008383951C
:1047F00031E06395DCCF2395CDCF782F20E02717CC
:1048000008F04BC022243324A22F60E0671790F5F4
:10481000FE01062F10E0E00FF11F00810F3F41F174
:104820000BE910E0FE01462F50E0E40FF51F408138
:1048300050E04F705070440F551F040F151F380182
:10484000FE01062F10E0E00FF11F408142954F70EE
:1048500050E00CE110E00E94B333600E711EA30122
:104860000E948C3328012414350410F41201A62F61
:104870006395CCCFFE01B0E0EA0FFB1F4081022F11
:1048800010E0F801E35EFC4F40830FEFFE01B0E063
:10489000EA0FFB1F00832395B2CF4FEF022F10E0EA
:1048A000F801E35EFC4F4083032FEF96EF962296CC
:1048B000E8E00C944C3420E0263008F04BC009B3FB
:1048C00010E0422F0E94C7330170002379F030E0DE
:1048D000F901E25EFB4F00810F3FB0F430E0F901D7
:1048E000E25EFB4F0081039500830EC030E0F901CA
:1048F000E25EFB4F0081013038F030E0F901E25E0A
:10490000FB4F00810A95008330E0F901E25EFB4F26
:1049100000810A3158F0422F01E010E00E94BB33C1
:104920001091A603102B1093A60312C030E0F901DA
:10493000E25EFB4F0081002359F4422F01E010E0BA
:104940000E94BB3300951091A60310231093A60379
:104950002395B2CF08950E944734A0910905B5E987
:1049600069EC74E04A2F50E00CE110E00E94B33390
:1049700023E9022E20E0122E000E111EFB01A001E1
:104980001CE120E00E943A340091030510910405D7
:104990000093E10400910705109108050093E204DB
:1049A0004A2F00919607109197070E94C13301701A
:1049B000002321F00091E2040093E20480E08830BB
:1049C00008F079C0009101051091020522E0829F54
:1049D000402D0E94C133902F9370992309F448C051
:1049E000292F30E0082F10E0000F111FF801E753C6
:1049F000FB4F00851185020F131F00871187082FB9
:104A000010E0000F111FF801E753FB4F00851185DF
:104A1000083E23E0120758F007EE13E0282F30E09D
:104A2000220F331FF901E753FB4F00871187482FEF
:104A300001E010E00E94BB33202F0A2F10E0F801A4
:104A4000EB5DFB4F0081022B0083482F01E010E05B
:104A50000E94BB33202F0A2F10E0F801EB5CFB4FC4
:104A60000081022B0083EAE9F4E000810160008309
:104A700009EF14E0012BE9F0082F10E0F801E750EE
:104A8000FB4F2081082F10E0F801E753FB4F008116
:104A9000020F0083082F10E0F801E753FB4F00815D
:104AA000043638F023E6082F10E0F801E753FB4FF7
:104AB0002083839584CF2AE130E009EC14E00E9442
:104AC000AF300093E3041093E404A895B53991F452
:104AD0004CE129EC34E0642F4A2F50E00CE110E067
:104AE0000E94B333A80103E910E0040F151F462FFD
:104AF0000E949C18A895E4E00C9450349A938A93F1
:104B000000919904002309F068C00091F603109108
:104B1000F7032091A7043091A804022313230093E4
:104B20007104109372040091F8031091F90320911D
:104B3000A7043091A8040223132300937304109355
:104B400074040091FA031091C304012300937504C7
:104B500000910C0410910D042091A7043091A80439
:104B600002231323009386041093870480E080318E
:104B700098F50091A7041091A804482F0E94C13312
:104B800001700023D9F090E0FC01EB5CFB4F008149
:104B900090E0FC01E857FB4F008300E090E0FC014F
:104BA000EB5CFB4F008390E0FC01E550FC4F008183
:104BB00090E0FC01EA58FB4F00830CC000E090E05D
:104BC000FC01E857FB4F008300E090E0FC01EA584D
:104BD000FB4F00838395CBCF03D0899199910895A2
:104BE00000E0009399040091710410917204012B6C
:104BF00031F40091730410917404012B29F0E9E958
:104C0000F4E000810061008300917504002329F025
:104C1000E9E9F4E0008108600083009186041091C6
:104C20008704012B29F0E9E9F4E0008102600083A8
:104C300020E0203120F50091A7041091A804422F14
:104C40000E94C13301700023C1F030E0F901E85740
:104C5000FB4F0081002329F0E9E9F4E000810160C5
:104C6000008330E0F901EA58FB4F0081002329F06E
:104C7000E9E9F4E00081046000832395DACF089528
:104C80000E9443342C974090A7045090A80480E0E1
:104C9000843008F045C02FEFFE01082F10E0E00F30
:104CA000F11F20832FEFFE013496082F10E0E00F54
:104CB000F11F20832FEFFE013896082F10E0E00F40
:104CC000F11F208320E0082F10E0000F111F000FBC
:104CD000111FF801E850F84F238320E0082F10E05F
:104CE000000F111F000F111FF801E850F84F248327
:104CF00020E0082F10E0000F111F000F111FF80116
:104D0000E850F84F258320E0082F10E0000F111F16
:104D1000000F111FF801E850F84F26838395B8CF94
:104D200080E0A0E08830D0F5A430C0F5482F8201A3
:104D30000E94C1330170002379F1482F0091710462
:104D4000109172040E94C1330170002351F400914C
:104D5000730410917404482F0E94C1330170002322
:104D6000D9F0FE013496B0E0EA0FFB1F8083082FD4
:104D700010E0F801E056FB4F0585FE01B0E0EA0FB8
:104D8000FB1F0083A395482F01E010E00E94BB3376
:104D900000951095402251228395C4CF80E0863043
:104DA000B0F5A430A0F50091C30410E0482F0E9494
:104DB000C7330170002349F10091750410E0482FBA
:104DC0000E94C7330170002351F40091750410E074
:104DD000482F43950E94C73301700023B1F042E091
:104DE000082F0E94A533FE013896B0E0EA0FFB1FA2
:104DF0000083082F10E0F801E056FB4F058DFE01FF
:104E0000B0E0EA0FFB1F0083A3958E5FC8CF80E060
:104E1000803170F5A43060F5482F82010E94C133C3
:104E20000170002319F1082F10E0F801EA58FB4F38
:104E300000810023D9F0FE013496B0E0EA0FFB1F99
:104E40008083082F10E0F801E056FB4F0585FE0136
:104E5000B0E0EA0FFB1F0083A395482F01E010E0AC
:104E60000E94BB3300951095402251228395D0CFEC
:104E700080E0803170F5A43060F5482F82010E94F7
:104E8000C1330170002319F1082F10E0F801E85731
:104E9000FB4F00810023D9F0FE013496B0E0EA0F09
:104EA000FB1F8083082F10E0F801E056FB4F0585BB
:104EB000FE01B0E0EA0FFB1F0083A395482F01E03D
:104EC00010E00E94BB33009510954022512283953B
:104ED000D0CF80E0803138F5A43028F5482F82010A
:104EE0000E94C13301700023E1F0482F0091860435
:104EF000109187040E94C1330170002391F0FE01DC
:104F00003496B0E0EA0FFB1F8083082F10E0F80111
:104F1000E056FB4F0585FE01B0E0EA0FFB1F008362
:104F2000A3958395D7CF80E0A81708F44CC1FE0164
:104F30003496082F10E0E00FF11F0081602E0FEF74
:104F4000601609F4B5C0FE01082F10E0E00FF11F54
:104F50002081082F10E0000F111F000F111FF80112
:104F6000E850F84F23837724F301E857FB4F208163
:104F7000082F10E0000F111F000F111FF801E8505B
:104F8000F84F248300E07724F301E857FB4F0083B8
:104F90007724F301EA58FB4F2081082F10E0000F1F
:104FA000111F000F111FF801E850F84F258300E092
:104FB0007724F301EA58FB4F0083FE013496082F53
:104FC00010E0E00FF11F0081083008F04AC0462DC4
:104FD00000917104109172040E94C133017000238A
:104FE00061F0082F10E0000F111F000F111FF801D2
:104FF000E850F84F06810160068300917304109118
:105000007404462D0E94C1330170002361F0082F03
:1050100010E0000F111F000F111FF801E850F84FAA
:10502000068102600683462D01E010E00E94BB333A
:1050300000951095E1E7F4E02081318120233123B0
:1050400020833183462D01E010E00E94BB330095A0
:105050001095E1E7F4E0228133812023312322837C
:105060003383462D00918604109187040E94C1333A
:105070000170002309F4A5C0082F10E0000F111FD4
:10508000000F111FF801E850F84F068100680683F1
:10509000462D01E010E00E94BB3300951095E6E834
:1050A000F4E020813181202331232083318389C0A2
:1050B000FE013896082F10E0E00FF11F00810F3F2E
:1050C00009F47FC0FE01082F10E0E00FF11F2081DE
:1050D000082F10E0000F111F000F111FF801E850FA
:1050E000F84F238320E0082F10E0000F111F000F5E
:1050F000111FF801E850F84F248320E0082F10E03A
:10510000000F111F000F111FF801E850F84F258301
:10511000FE013896082F10E0E00FF11F00810050CB
:1051200029F00A95C9F00A9579F146C000917504F5
:105130000370902F992379F0082F10E0000F111FB2
:10514000000F111FF801E850F84F96830091750485
:105150000C7F0093750435C0009175040695069583
:10516000902F9370992369F1082F10E0000F111F01
:10517000000F111FF801E850F84F96830091750455
:10518000037F009375041DC00091750402950F7094
:10519000902F93709923A9F0082F10E0000F111F92
:1051A000000F111FF801E850F84F96830091750425
:1051B0000F7C0093750405C0009175040F73009374
:1051C00075048395B1CE00919B040B3B31F400E054
:1051D00000939B040FEF0093070802DD2C96E8E094
:1051E0000C944C34202F212B19F001501040FACF91
:1051F00008950091F3031091F403012B49F0E3EFBC
:10520000F3E0008111810150104000831183089563
:10521000009131080A30A1F400913208053081F480
:105220000091E5041091E604012B31F40091E704AC
:105230001091E804012B11F0909A08959098089528
:105240000091F5030B3059F400E00093F50304E1FD
:1052500010E00093F3031093F403909A08950091E3
:10526000F6031091F703012BA1F40091F8031091BC
:10527000F903012B71F40091FA03002351F400911A
:105280000C0410910D04012B21F400919D040023C6
:1052900011F0909801C0909AEAE9F4E0008100FFD3
:1052A0000CC0EAE9F4E000810E7F008308E017E01B
:1052B0000093F3031093F4039098089506E000938D
:1052C0009500ECE9F6E0059114913197012F10E07B
:1052D00000939000ECE9F6E005911491319709B93B
:1052E00008ED0AB906E000939D00ECE9F6E00591AF
:1052F00014913197012F10E000939800ECE9F6E04B
:105300000591149131970093990008ED00939A004C
:1053100008950E94453480E0803140F400E090E040
:10532000FC01E056FB4F05878395F6CF0091A00462
:105330000130E9F481E00091A104081708F443C0AA
:1053400090E0FC01E056FB4F8587082F10E0000F2E
:10535000111FF801E056FB4F838F082F10E0000F5C
:10536000111FF801E056FB4F848F8395E4CF80E056
:10537000843048F5E0ECF6E090E0E80FF91F00918A
:10538000A10410E0000F111F000F111FE00FF11F0B
:105390000491402E5524F201E056FB4F45868330A0
:1053A00080F4082F10E0000F111FF801E056FB4FAA
:1053B000458E082F10E0000F111FF801E056FB4F3B
:1053C000468E8395D5CF00E010E00093A70410939C
:1053D000A804549880E0823008F0E3C003E0009312
:1053E000830700E000938407E2ECF6E00491009369
:1053F000850700E00093860701E00093870700E03F
:105400000093920700919207003108F0C8C0009104
:10541000A7041091A804409192070E94C133017023
:10542000002309F0B6C00091920710E0F801E056A1
:10543000FB4F0585002309F4ACC00091920700934F
:10544000820726E030E002E817E089D6D8010A2F6B
:10545000009388078D01012F10E00093890708E071
:1054600000934E0728E002E517E06CD601E00093B8
:105470004D07E8EBF6E00491E0ECF6E01491019FB3
:10548000000C111C000C111C1BBC0ABC0DE00EBD55
:1054900000E010E01DBD0CBDE5EFF4E00081086008
:1054A0000083E5EFF4E000810F7D0083E5EFF4E099
:1054B00000810F7B008300E002BF0FE003BFEEEA34
:1054C000F6E0149102E0109F01BE0091F5041091E6
:1054D000F60400761070012B11F4A895F6CFE5EFD5
:1054E000F4E000810F7B0083E5EFF4E000810D7FA5
:1054F0000083549A20E102E517E024D6E5EFF4E0BA
:1055000000810E7F008300E000934C0700E010E074
:105510001DBD0CBD0091F5041091F60402741070CD
:10552000012B11F4A895F6CFE5EFF4E0008101FF1F
:1055300030C000915207109192070117E9F40091D1
:1055400053070330C9F4009154070230A9F427E04F
:1055500030E002E517E003D6012B71F44091920789
:1055600001E010E00E94BB33E0EAF4E027813085DF
:10557000202B312B278330875498E5EFF4E000810E
:105580000D7F0083E5EFF4E0008106FD02C0A895E1
:10559000F9CF0091920703950093920733CF83953B
:1055A0001ACFE6E00C944E348A930091A704109130
:1055B000A804012BD1F00091F5041091F604000F1E
:1055C000012F001F10E0111F07701070033069F0E9
:1055D0000091F5041091F604000F012F001F10E058
:1055E000111F07701070043009F491C10091F50487
:1055F0001091F604000F012F001F10E0111F07701B
:105600001070013099F00091F5041091F604000F2C
:10561000012F001F10E0111F07701070023031F0D1
:10562000E5EFF4E001810B7F018373D20091F50473
:105630001091F604000F012F001F10E0111F0770DA
:105640001070023009F01AC1E5EFF4E0008106FFA6
:105650005EC1E5EFF4E0008101FFE7C02091520751
:10566000E5EFF4E0018102FB00E010E000F9F80151
:10567000EE56F84F0081201709F0D7C0009153076C
:10568000033009F0D2C020915407E5EFF4E0018126
:1056900002FB00E010E000F9F801E054F94F04913A
:1056A000201709F0C2C0E5EFF4E0018102FB00E041
:1056B00010E000F9F801E054F94F0491E02FF0E018
:1056C00035969F0102E517E04AD5012B09F0ADC0E0
:1056D000E5EFF4E0018102FB00E010E000F9F801E1
:1056E000EE56F84F408101E010E00E94BB33009578
:1056F0001095E4E9F7E020813181202331232083D4
:105700003183E1D2035009F490C00250E9F0025015
:1057100009F479C0045009F0FAC0009193070031F0
:1057200098F44091930750E002E210E00E94B333F6
:105730002AE035E0200F311F6AE277E08901FB01A2
:1057400042E250E00E942F3400E000939E0300915B
:10575000920703950093920780E0803108F041C0E2
:1057600000919207003158F100E0009392070091F8
:10577000930703950093930700919307003118F066
:1057800000E00093930780E08031C8F40091A70403
:105790001091A804409193070E94C1330170002327
:1057A00039F0E5EFF4E0018104600183B2D1AFC0CC
:1057B000009193070395009393078395E5CF00919C
:1057C000A7041091A804409192070E94C133017070
:1057D000002339F400919207039500939207839573
:1057E000BCCF0091A7041091A804409192070E9499
:1057F000C1330170002331F0E5EFF4E001810B7F4C
:10580000018387D184C040910905009196071091CA
:1058100097070E94C1330170002311F40E94AB244A
:1058200000E000939E03EED172C00091A704109196
:10583000A804409192070E94C13301700023E9F04F
:105840004091920701E010E00E94BB33E4E9F7E0E9
:1058500020813181202B312B2083318300919E03C5
:10586000039500939E0300919E03063030F4E5EF0C
:10587000F4E001810B7F01834CD166CF0091F504E8
:105880001091F604000F012F001F10E0111F077088
:1058900010700130E1F50091F5041091F6040076E6
:1058A0001070012BA1F100E010E01DBD0CBDE5EF73
:1058B000F4E000810E7F008300E000934C07E5EFE9
:1058C000F4E000810F7B0083E8EBF6E02491E5EF44
:1058D000F4E0018102FB00E010E000F9F801E0547F
:1058E000F94F0491209F48E050E080010E94B333BB
:1058F0001BBD0ABD0091F5041091F6040F771C7FC3
:10590000006011600093F5041093F604549A899195
:1059100008950091A7041091A804012BD1F00091E3
:10592000F5041091F604000F012F001F10E0111F65
:1059300007701070013069F00091F5041091F604C1
:10594000000F012F001F10E0111F077010700230B0
:1059500009F408950091F5041091F604000F012F49
:10596000001F10E0111F07701070043009F093C081
:10597000E5EFF4E0008106FFCBC0E5EFF4E0008145
:1059800001FF5AC000915207109109050117B9F59E
:1059900000915307063099F500915407013079F5CD
:1059A00000915507003159F528E030E002E517E095
:1059B000D6D3012B21F54091090501E010E00E94AA
:1059C000BB3300951095E4E9F7E020813181202375
:1059D0003123208331834091090501E010E00E94CA
:1059E000BB3300951095E6E9F7E020813181202353
:1059F00031232083318300E000939E0339C040911E
:105A0000090501E010E00E94BB33E4E9F7E02081E2
:105A10003181202B312B208331834091090501E016
:105A200010E00E94BB33E6E9F7E020813181202BB2
:105A3000312B208331831CC04091090501E010E027
:105A40000E94BB33E4E9F7E020813181202B312B28
:105A5000208331834091090501E010E00E94BB33AF
:105A6000E6E9F7E020813181202B312B208331833F
:105A70000091F5041091F6040F771C7F0068106008
:105A80000093F5041093F604E5EFF4E001810B7F39
:105A900001833FD008950091F5041091F604000FA2
:105AA000012F001F10E0111F07701070033081F5E7
:105AB0000091F5041091F60400761070012B41F16D
:105AC00000E010E01DBD0CBDE5EFF4E000810E7FAD
:105AD000008300E000934C07E5EFF4E000810F7BCA
